{
  "address": "0x9fE46736679d2D9a65F0992F2272dE9f3c7fa6e0",
  "abi": [
    {
      "inputs": [
        {
          "internalType": "address",
          "name": "nftAddress",
          "type": "address"
        },
        {
          "internalType": "address",
          "name": "wethAddress",
          "type": "address"
        }
      ],
      "stateMutability": "nonpayable",
      "type": "constructor"
    },
    {
      "inputs": [],
      "name": "Market_Expired",
      "type": "error"
    },
    {
      "inputs": [],
      "name": "Market_IsAlreadOwner",
      "type": "error"
    },
    {
      "inputs": [],
      "name": "Market_NonceUsed",
      "type": "error"
    },
    {
      "inputs": [],
      "name": "Market_NotOwner",
      "type": "error"
    },
    {
      "inputs": [],
      "name": "Market_WrongSignature",
      "type": "error"
    },
    {
      "inputs": [
        {
          "components": [
            {
              "internalType": "uint256",
              "name": "tokenId",
              "type": "uint256"
            },
            {
              "internalType": "address",
              "name": "user",
              "type": "address"
            },
            {
              "internalType": "uint256",
              "name": "nonce",
              "type": "uint256"
            },
            {
              "internalType": "uint256",
              "name": "price",
              "type": "uint256"
            },
            {
              "internalType": "string",
              "name": "typeOf",
              "type": "string"
            },
            {
              "internalType": "uint256",
              "name": "timestamp",
              "type": "uint256"
            }
          ],
          "internalType": "struct Market.Message",
          "name": "message",
          "type": "tuple"
        },
        {
          "internalType": "bytes",
          "name": "signature",
          "type": "bytes"
        }
      ],
      "name": "BuyNft",
      "outputs": [
        {
          "internalType": "bool",
          "name": "",
          "type": "bool"
        }
      ],
      "stateMutability": "nonpayable",
      "type": "function"
    },
    {
      "inputs": [
        {
          "components": [
            {
              "internalType": "uint256",
              "name": "tokenId",
              "type": "uint256"
            },
            {
              "internalType": "address",
              "name": "user",
              "type": "address"
            },
            {
              "internalType": "uint256",
              "name": "nonce",
              "type": "uint256"
            },
            {
              "internalType": "uint256",
              "name": "price",
              "type": "uint256"
            },
            {
              "internalType": "string",
              "name": "typeOf",
              "type": "string"
            },
            {
              "internalType": "uint256",
              "name": "timestamp",
              "type": "uint256"
            }
          ],
          "internalType": "struct Market.Message",
          "name": "message",
          "type": "tuple"
        },
        {
          "internalType": "bytes",
          "name": "signature",
          "type": "bytes"
        }
      ],
      "name": "SellNft",
      "outputs": [],
      "stateMutability": "nonpayable",
      "type": "function"
    },
    {
      "inputs": [
        {
          "components": [
            {
              "internalType": "uint256",
              "name": "tokenId",
              "type": "uint256"
            },
            {
              "internalType": "address",
              "name": "user",
              "type": "address"
            },
            {
              "internalType": "uint256",
              "name": "nonce",
              "type": "uint256"
            },
            {
              "internalType": "uint256",
              "name": "price",
              "type": "uint256"
            },
            {
              "internalType": "string",
              "name": "typeOf",
              "type": "string"
            },
            {
              "internalType": "uint256",
              "name": "timestamp",
              "type": "uint256"
            }
          ],
          "internalType": "struct Market.Message",
          "name": "message",
          "type": "tuple"
        },
        {
          "internalType": "bytes",
          "name": "signature",
          "type": "bytes"
        }
      ],
      "name": "getSigner",
      "outputs": [
        {
          "internalType": "address",
          "name": "",
          "type": "address"
        }
      ],
      "stateMutability": "view",
      "type": "function"
    }
  ],
  "transactionHash": "0xe10aeca7c4b483f9dce9f96420dc904973fbb4d4c020556a3ec7b3b439acf874",
  "args": [
    "0xe7f1725E7734CE288F8367e1Bb143E90bb3F0512",
    "0x5FbDB2315678afecb367f032d93F642f64180aa3"
  ],
  "numDeployments": 1,
  "solcInputHash": "56aa4bb4a2e3116f089a64d5962190af",
  "bytecode": "0x60c060405234801561001057600080fd5b50604051610dea380380610dea83398101604081905261002f91610062565b6001600160a01b039182166080521660a052610095565b80516001600160a01b038116811461005d57600080fd5b919050565b6000806040838503121561007557600080fd5b61007e83610046565b915061008c60208401610046565b90509250929050565b60805160a051610d156100d560003960008181610282015261057101526000818160e90152818161031a015281816103e601526106060152610d156000f3fe608060405234801561001057600080fd5b50600436106100415760003560e01c806361d75858146100465780637be881581461005b578063995c2c0f14610083575b600080fd5b610059610054366004610a8e565b6100ae565b005b61006e610069366004610a8e565b6103a7565b60405190151581526020015b60405180910390f35b610096610091366004610a8e565b610697565b6040516001600160a01b03909116815260200161007a565b604080518082018252600581526437b33332b960d91b60208201526080840152825190516331a9108f60e11b81526000916001600160a01b037f00000000000000000000000000000000000000000000000000000000000000001691636352211e916101209160040190815260200190565b602060405180830381865afa15801561013d573d6000803e3d6000fd5b505050506040513d601f19601f820116820180604052508101906101619190610b73565b90506001600160a01b038116331461018c576040516303b1595d60e01b815260040160405180910390fd5b428360a0015110156101b15760405163af22eecf60e01b815260040160405180910390fd5b336001600160a01b031683602001516001600160a01b0316036101e757604051630405f71160e11b815260040160405180910390fd5b60408084015160009081526020819052205460ff16151560010361021d576040516244b77d60e71b815260040160405180910390fd5b60006102298484610697565b905083602001516001600160a01b0316816001600160a01b031614610261576040516314282e6960e21b815260040160405180910390fd5b602084015160608501516040516323b872dd60e01b81526001600160a01b037f000000000000000000000000000000000000000000000000000000000000000016926323b872dd926102b892879190600401610b90565b6020604051808303816000875af11580156102d7573d6000803e3d6000fd5b505050506040513d601f19601f820116820180604052508101906102fb9190610bb4565b5060208401518451604051632142170760e11b81526001600160a01b037f000000000000000000000000000000000000000000000000000000000000000016926342842e0e926103519287929190600401610b90565b600060405180830381600087803b15801561036b57600080fd5b505af115801561037f573d6000803e3d6000fd5b5050506040948501516000908152602081905294909420805460ff1916600117905550505050565b60408051808201825260048082526373616c6560e01b60208301526080850191909152835191516331a9108f60e11b81529081019190915260009081907f00000000000000000000000000000000000000000000000000000000000000006001600160a01b031690636352211e90602401602060405180830381865afa158015610435573d6000803e3d6000fd5b505050506040513d601f19601f820116820180604052508101906104599190610b73565b905083602001516001600160a01b0316816001600160a01b031614610491576040516303b1595d60e01b815260040160405180910390fd5b428460a0015110156104b65760405163af22eecf60e01b815260040160405180910390fd5b336001600160a01b038216036104df57604051630405f71160e11b815260040160405180910390fd5b60408085015160009081526020819052205460ff161515600103610515576040516244b77d60e71b815260040160405180910390fd5b60006105218585610697565b9050816001600160a01b0316816001600160a01b031614610555576040516314282e6960e21b815260040160405180910390fd5b60608501516040516323b872dd60e01b81526001600160a01b037f000000000000000000000000000000000000000000000000000000000000000016916323b872dd916105a9913391879190600401610b90565b6020604051808303816000875af11580156105c8573d6000803e3d6000fd5b505050506040513d601f19601f820116820180604052508101906105ec9190610bb4565b508451604051632142170760e11b81526001600160a01b037f000000000000000000000000000000000000000000000000000000000000000016916342842e0e9161063e918691339190600401610b90565b600060405180830381600087803b15801561065857600080fd5b505af115801561066c573d6000803e3d6000fd5b5050506040958601516000908152602081905295909520805460ff1916600117905550909392505050565b600080604051806080016040528060528152602001610c8e60529139905060006040518060a0016040528060618152602001610c2d6061913990506000826040516020016106e59190610bd6565b6040516020818303038152906040528051906020012060405160200161071e906c4e465420506f7274666f6c696f60981b8152600d0190565b6040516020818303038152906040528051906020012060405160200161074b90603160f81b815260010190565b60408051601f1981840301815282825280516020918201209083019490945281019190915260608101919091524660808201523060a082015260c001604051602081830303815290604052805190602001209050600081836040516020016107b39190610bd6565b60405160208183030381529060405280519060200120886000015189604001518a606001518b60a001518c608001516040516020016107f29190610bd6565b604051602081830303815290604052805190602001208d602001516040516020016108579796959493929190968752602087019590955260408601939093526060850191909152608084015260a08301526001600160a01b031660c082015260e00190565b6040516020818303038152906040528051906020012060405160200161089492919061190160f01b81526002810192909252602282015260420190565b6040516020818303038152906040528051906020012090506108b681876108c3565b9450505050505b92915050565b60008060008084516041146108de57600093505050506108bd565b50505060208201516040830151606084015160001a601b81101561090a57610907601b82610c05565b90505b8060ff16601b1415801561092257508060ff16601c14155b1561093357600093505050506108bd565b60408051600081526020810180835288905260ff831691810191909152606081018490526080810183905260019060a0016020604051602081039080840390855afa158015610986573d6000803e3d6000fd5b5050506020604051035193505050506108bd565b634e487b7160e01b600052604160045260246000fd5b60405160c0810167ffffffffffffffff811182821017156109d3576109d361099a565b60405290565b6001600160a01b03811681146109ee57600080fd5b50565b600067ffffffffffffffff80841115610a0c57610a0c61099a565b604051601f8501601f19908116603f01168101908282118183101715610a3457610a3461099a565b81604052809350858152868686011115610a4d57600080fd5b858560208301376000602087830101525050509392505050565b600082601f830112610a7857600080fd5b610a87838335602085016109f1565b9392505050565b60008060408385031215610aa157600080fd5b823567ffffffffffffffff80821115610ab957600080fd5b9084019060c08287031215610acd57600080fd5b610ad56109b0565b823581526020830135610ae7816109d9565b806020830152506040830135604082015260608301356060820152608083013582811115610b1457600080fd5b8301601f81018813610b2557600080fd5b610b34888235602084016109f1565b60808301525060a083013560a0820152809450506020850135915080821115610b5c57600080fd5b50610b6985828601610a67565b9150509250929050565b600060208284031215610b8557600080fd5b8151610a87816109d9565b6001600160a01b039384168152919092166020820152604081019190915260600190565b600060208284031215610bc657600080fd5b81518015158114610a8757600080fd5b6000825160005b81811015610bf75760208186018101518583015201610bdd565b506000920191825250919050565b60ff81811683821601908111156108bd57634e487b7160e01b600052601160045260246000fdfe4d6573736167652875696e7432353620746f6b656e49642c75696e74323536206e6f6e63652c75696e743235362070726963652c75696e743235362074696d657374616d702c737472696e6720747970654f662c61646472657373207573657229454950373132446f6d61696e28737472696e67206e616d652c737472696e672076657273696f6e2c75696e7432353620636861696e49642c6164647265737320766572696679696e67436f6e747261637429a26469706673582212202063d1df4d45cff4c51ced9559762c17b33a32ecec2729bebe646deda531c9bd64736f6c63430008130033",
  "devdoc": {
    "kind": "dev",
    "methods": {},
    "version": 1
  },
  "userdoc": {
    "kind": "user",
    "methods": {},
    "version": 1
  },
  "storageLayout": {
    "storage": [
      {
        "astId": 232,
        "contract": "contracts/Market.sol:Market",
        "label": "s_nonceIsUsed",
        "offset": 0,
        "slot": "0",
        "type": "t_mapping(t_uint256,t_bool)"
      }
    ],
    "types": {
      "t_bool": {
        "encoding": "inplace",
        "label": "bool",
        "numberOfBytes": "1"
      },
      "t_mapping(t_uint256,t_bool)": {
        "encoding": "mapping",
        "key": "t_uint256",
        "label": "mapping(uint256 => bool)",
        "numberOfBytes": "32",
        "value": "t_bool"
      },
      "t_uint256": {
        "encoding": "inplace",
        "label": "uint256",
        "numberOfBytes": "32"
      }
    }
  }
}