{
  "address": "0xe7f1725E7734CE288F8367e1Bb143E90bb3F0512",
  "abi": [
    {
      "inputs": [
        {
          "internalType": "address",
          "name": "nftAddress",
          "type": "address"
        }
      ],
      "stateMutability": "nonpayable",
      "type": "constructor"
    },
    {
      "inputs": [
        {
          "internalType": "uint256",
          "name": "tokenId",
          "type": "uint256"
        },
        {
          "internalType": "address",
          "name": "sigOwner",
          "type": "address"
        },
        {
          "internalType": "uint256",
          "name": "price",
          "type": "uint256"
        },
        {
          "internalType": "string",
          "name": "typeOf",
          "type": "string"
        },
        {
          "internalType": "uint256",
          "name": "nonce",
          "type": "uint256"
        },
        {
          "internalType": "bytes",
          "name": "signature",
          "type": "bytes"
        }
      ],
      "name": "PurchaseNft",
      "outputs": [
        {
          "internalType": "bool",
          "name": "",
          "type": "bool"
        }
      ],
      "stateMutability": "view",
      "type": "function"
    },
    {
      "inputs": [
        {
          "internalType": "uint256",
          "name": "tokenId",
          "type": "uint256"
        },
        {
          "internalType": "uint256",
          "name": "price",
          "type": "uint256"
        }
      ],
      "name": "SellNft",
      "outputs": [],
      "stateMutability": "nonpayable",
      "type": "function"
    },
    {
      "inputs": [],
      "name": "getNonce",
      "outputs": [
        {
          "internalType": "uint256",
          "name": "",
          "type": "uint256"
        }
      ],
      "stateMutability": "view",
      "type": "function"
    },
    {
      "inputs": [
        {
          "internalType": "uint256",
          "name": "tokenId",
          "type": "uint256"
        },
        {
          "internalType": "address",
          "name": "sigOwner",
          "type": "address"
        },
        {
          "internalType": "uint256",
          "name": "price",
          "type": "uint256"
        },
        {
          "internalType": "string",
          "name": "typeOf",
          "type": "string"
        },
        {
          "internalType": "uint256",
          "name": "nonce",
          "type": "uint256"
        },
        {
          "internalType": "bytes",
          "name": "signature",
          "type": "bytes"
        }
      ],
      "name": "getSigner",
      "outputs": [
        {
          "internalType": "address",
          "name": "",
          "type": "address"
        }
      ],
      "stateMutability": "view",
      "type": "function"
    }
  ],
  "transactionHash": "0xe5dbc84f9486e61a734b43ca591ffdcd0c6f47d356dc157857091fa232c00bdb",
  "args": [
    "0x5FbDB2315678afecb367f032d93F642f64180aa3"
  ],
  "numDeployments": 1,
  "solcInputHash": "d8d68221c77a89dbcbe30dfc6d424f8d",
  "bytecode": "0x60a060405234801561001057600080fd5b5060405161082238038061082283398101604081905261002f91610040565b6001600160a01b0316608052610070565b60006020828403121561005257600080fd5b81516001600160a01b038116811461006957600080fd5b9392505050565b60805161079861008a600039600060f901526107986000f3fe608060405234801561001057600080fd5b506004361061004c5760003560e01c80633835acd51461005157806361f617b414610079578063d087d288146100a4578063e17b6081146100c2575b600080fd5b61006461005f366004610583565b6100d6565b60405190151581526020015b60405180910390f35b61008c610087366004610583565b61021e565b6040516001600160a01b039091168152602001610070565b33600090815260208190526040902054604051908152602001610070565b6100d46100d0366004610640565b5050565b005b6040516331a9108f60e11b81526004810187905260009033906001600160a01b037f00000000000000000000000000000000000000000000000000000000000000001690636352211e90602401602060405180830381865afa158015610140573d6000803e3d6000fd5b505050506040513d601f19601f820116820180604052508101906101649190610662565b6001600160a01b0316146101ab5760405162461bcd60e51b81526020600482015260096024820152682737ba1037bbb732b960b91b60448201526064015b60405180910390fd5b60006101bb88888888888861021e565b9050866001600160a01b0316816001600160a01b0316146102105760405162461bcd60e51b815260206004820152600f60248201526e57726f6e67205369676e617475726560881b60448201526064016101a2565b506001979650505050505050565b6000806040518060800160405280605281526020016106dd605291399050600060405180606001604052806034815260200161072f60349139905060008260405160200161026c9190610686565b604051602081830303815290604052805190602001206040516020016102a5906c4e465420506f7274666f6c696f60981b8152600d0190565b604051602081830303815290604052805190602001206040516020016102d290603160f81b815260010190565b60408051601f1981840301815282825280516020918201209083019490945281019190915260608101919091524660808201523060a082015260c0016040516020818303038152906040528051906020012090506000818360405160200161033a9190610686565b604051602081830303815290604052805190602001208c898b6040516020016103639190610686565b60408051601f198184030181528282528051602091820120908301959095528101929092526060820152608081019190915260a001604051602081830303815290604052805190602001206040516020016103d592919061190160f01b81526002810192909252602282015260420190565b6040516020818303038152906040528051906020012090506103f78187610406565b9b9a5050505050505050505050565b600080600080845160411461042157600093505050506104d9565b50505060208201516040830151606084015160001a601b81101561044d5761044a601b826106b5565b90505b8060ff16601b1415801561046557508060ff16601c14155b1561047657600093505050506104d9565b60408051600081526020810180835288905260ff831691810191909152606081018490526080810183905260019060a0016020604051602081039080840390855afa1580156104c9573d6000803e3d6000fd5b5050506020604051035193505050505b92915050565b6001600160a01b03811681146104f457600080fd5b50565b634e487b7160e01b600052604160045260246000fd5b600067ffffffffffffffff80841115610528576105286104f7565b604051601f8501601f19908116603f01168101908282118183101715610550576105506104f7565b8160405280935085815286868601111561056957600080fd5b858560208301376000602087830101525050509392505050565b60008060008060008060c0878903121561059c57600080fd5b8635955060208701356105ae816104df565b945060408701359350606087013567ffffffffffffffff808211156105d257600080fd5b818901915089601f8301126105e657600080fd5b6105f58a83356020850161050d565b94506080890135935060a089013591508082111561061257600080fd5b508701601f8101891361062457600080fd5b6106338982356020840161050d565b9150509295509295509295565b6000806040838503121561065357600080fd5b50508035926020909101359150565b60006020828403121561067457600080fd5b815161067f816104df565b9392505050565b6000825160005b818110156106a7576020818601810151858301520161068d565b506000920191825250919050565b60ff81811683821601908111156104d957634e487b7160e01b600052601160045260246000fdfe454950373132446f6d61696e28737472696e67206e616d652c737472696e672076657273696f6e2c75696e7432353620636861696e49642c6164647265737320766572696679696e67436f6e7472616374294d6573736167652875696e7432353620746f6b656e49642c75696e74323536206e6f6e63652c737472696e6720747970654f6629a26469706673582212207b67482c3a5e1a90d40b8d64cf978054a4d7f050068a46b98e6ac51e27e9a6fc64736f6c63430008130033",
  "devdoc": {
    "kind": "dev",
    "methods": {},
    "version": 1
  },
  "userdoc": {
    "kind": "user",
    "methods": {},
    "version": 1
  },
  "storageLayout": {
    "storage": [
      {
        "astId": 140,
        "contract": "contracts/Market.sol:Market",
        "label": "s_addressToNonce",
        "offset": 0,
        "slot": "0",
        "type": "t_mapping(t_address,t_uint256)"
      }
    ],
    "types": {
      "t_address": {
        "encoding": "inplace",
        "label": "address",
        "numberOfBytes": "20"
      },
      "t_mapping(t_address,t_uint256)": {
        "encoding": "mapping",
        "key": "t_address",
        "label": "mapping(address => uint256)",
        "numberOfBytes": "32",
        "value": "t_uint256"
      },
      "t_uint256": {
        "encoding": "inplace",
        "label": "uint256",
        "numberOfBytes": "32"
      }
    }
  }
}