{
  "address": "0xe7f1725E7734CE288F8367e1Bb143E90bb3F0512",
  "abi": [
    {
      "inputs": [
        {
          "internalType": "address",
          "name": "nftAddress",
          "type": "address"
        }
      ],
      "stateMutability": "nonpayable",
      "type": "constructor"
    },
    {
      "inputs": [
        {
          "internalType": "uint256",
          "name": "tokenId",
          "type": "uint256"
        },
        {
          "internalType": "address",
          "name": "sigOwner",
          "type": "address"
        },
        {
          "internalType": "uint256",
          "name": "price",
          "type": "uint256"
        },
        {
          "internalType": "string",
          "name": "typeOf",
          "type": "string"
        },
        {
          "internalType": "uint256",
          "name": "nonce",
          "type": "uint256"
        },
        {
          "internalType": "bytes",
          "name": "signature",
          "type": "bytes"
        }
      ],
      "name": "PurchaseNft",
      "outputs": [
        {
          "internalType": "bool",
          "name": "",
          "type": "bool"
        }
      ],
      "stateMutability": "view",
      "type": "function"
    },
    {
      "inputs": [
        {
          "internalType": "uint256",
          "name": "tokenId",
          "type": "uint256"
        },
        {
          "internalType": "uint256",
          "name": "price",
          "type": "uint256"
        }
      ],
      "name": "SellNft",
      "outputs": [],
      "stateMutability": "nonpayable",
      "type": "function"
    },
    {
      "inputs": [],
      "name": "getNonce",
      "outputs": [
        {
          "internalType": "uint256",
          "name": "",
          "type": "uint256"
        }
      ],
      "stateMutability": "view",
      "type": "function"
    },
    {
      "inputs": [
        {
          "internalType": "uint256",
          "name": "tokenId",
          "type": "uint256"
        },
        {
          "internalType": "uint256",
          "name": "nonce",
          "type": "uint256"
        },
        {
          "internalType": "uint256",
          "name": "price",
          "type": "uint256"
        },
        {
          "internalType": "string",
          "name": "typeOf",
          "type": "string"
        },
        {
          "internalType": "bytes",
          "name": "signature",
          "type": "bytes"
        }
      ],
      "name": "getSigner",
      "outputs": [
        {
          "internalType": "address",
          "name": "",
          "type": "address"
        }
      ],
      "stateMutability": "view",
      "type": "function"
    }
  ],
  "transactionHash": "0x9900a4b2b8e8acb827140792efa69ee746be998c060f9563da192c4a8ccc5c95",
  "args": [
    "0x5FbDB2315678afecb367f032d93F642f64180aa3"
  ],
  "numDeployments": 1,
  "solcInputHash": "dcc995bbb0252d36b238d00d5b11d63f",
  "bytecode": "0x60a060405234801561001057600080fd5b506040516108c73803806108c783398101604081905261002f91610040565b6001600160a01b0316608052610070565b60006020828403121561005257600080fd5b81516001600160a01b038116811461006957600080fd5b9392505050565b60805161083c61008b60003960006102fe015261083c6000f3fe608060405234801561001057600080fd5b506004361061004c5760003560e01c806315b50ca6146100515780633835acd514610081578063d087d288146100a4578063e17b6081146100c2575b600080fd5b61006461005f36600461059e565b6100d6565b6040516001600160a01b0390911681526020015b60405180910390f35b61009461008f366004610637565b6102db565b6040519015158152602001610078565b33600090815260208190526040902054604051908152602001610078565b6100d46100d03660046106c9565b5050565b005b60008033905060006040518060800160405280605281526020016107b560529139905060006040518060800160405280604f8152602001610766604f9139905060008260405160200161012991906106eb565b60405160208183030381529060405280519060200120604051602001610162906c4e465420506f7274666f6c696f60981b8152600d0190565b6040516020818303038152906040528051906020012060405160200161018f90603160f81b815260010190565b60408051601f1981840301815282825280516020918201209083019490945281019190915260608101919091524660808201523060a082015260c001604051602081830303815290604052805190602001209050600081836040516020016101f791906106eb565b604051602081830303815290604052805190602001208c8c8c8c60405160200161022191906106eb565b60408051601f198184030181528282528051602091820120908301969096528101939093526060830191909152608082015260a08101919091526001600160a01b03871660c082015260e001604051602081830303815290604052805190602001206040516020016102aa92919061190160f01b81526002810192909252602282015260420190565b6040516020818303038152906040528051906020012090506102cc8188610422565b9b9a5050505050505050505050565b6040516331a9108f60e11b81526004810187905260009033906001600160a01b037f00000000000000000000000000000000000000000000000000000000000000001690636352211e90602401602060405180830381865afa158015610345573d6000803e3d6000fd5b505050506040513d601f19601f82011682018060405250810190610369919061071a565b6001600160a01b0316146103b05760405162461bcd60e51b81526020600482015260096024820152682737ba1037bbb732b960b91b60448201526064015b60405180910390fd5b60006103bf88858888876100d6565b9050866001600160a01b0316816001600160a01b0316146104145760405162461bcd60e51b815260206004820152600f60248201526e57726f6e67205369676e617475726560881b60448201526064016103a7565b506001979650505050505050565b600080600080845160411461043d57600093505050506104f5565b50505060208201516040830151606084015160001a601b81101561046957610466601b8261073e565b90505b8060ff16601b1415801561048157508060ff16601c14155b1561049257600093505050506104f5565b60408051600081526020810180835288905260ff831691810191909152606081018490526080810183905260019060a0016020604051602081039080840390855afa1580156104e5573d6000803e3d6000fd5b5050506020604051035193505050505b92915050565b634e487b7160e01b600052604160045260246000fd5b600082601f83011261052257600080fd5b813567ffffffffffffffff8082111561053d5761053d6104fb565b604051601f8301601f19908116603f01168101908282118183101715610565576105656104fb565b8160405283815286602085880101111561057e57600080fd5b836020870160208301376000602085830101528094505050505092915050565b600080600080600060a086880312156105b657600080fd5b853594506020860135935060408601359250606086013567ffffffffffffffff808211156105e357600080fd5b6105ef89838a01610511565b9350608088013591508082111561060557600080fd5b5061061288828901610511565b9150509295509295909350565b6001600160a01b038116811461063457600080fd5b50565b60008060008060008060c0878903121561065057600080fd5b8635955060208701356106628161061f565b945060408701359350606087013567ffffffffffffffff8082111561068657600080fd5b6106928a838b01610511565b94506080890135935060a08901359150808211156106af57600080fd5b506106bc89828a01610511565b9150509295509295509295565b600080604083850312156106dc57600080fd5b50508035926020909101359150565b6000825160005b8181101561070c57602081860181015185830152016106f2565b506000920191825250919050565b60006020828403121561072c57600080fd5b81516107378161061f565b9392505050565b60ff81811683821601908111156104f557634e487b7160e01b600052601160045260246000fdfe4d6573736167652875696e7432353620746f6b656e49642c75696e74323536206e6f6e63652c75696e743235362070726963652c737472696e6720747970654f662c61646472657373207573657229454950373132446f6d61696e28737472696e67206e616d652c737472696e672076657273696f6e2c75696e7432353620636861696e49642c6164647265737320766572696679696e67436f6e747261637429a2646970667358221220e139c4f03f22deb84ef7c7305be8d91d03a00e1d670a655775fb767282e9270064736f6c63430008130033",
  "devdoc": {
    "kind": "dev",
    "methods": {},
    "version": 1
  },
  "userdoc": {
    "kind": "user",
    "methods": {},
    "version": 1
  },
  "storageLayout": {
    "storage": [
      {
        "astId": 140,
        "contract": "contracts/Market.sol:Market",
        "label": "s_addressToNonce",
        "offset": 0,
        "slot": "0",
        "type": "t_mapping(t_address,t_uint256)"
      }
    ],
    "types": {
      "t_address": {
        "encoding": "inplace",
        "label": "address",
        "numberOfBytes": "20"
      },
      "t_mapping(t_address,t_uint256)": {
        "encoding": "mapping",
        "key": "t_address",
        "label": "mapping(address => uint256)",
        "numberOfBytes": "32",
        "value": "t_uint256"
      },
      "t_uint256": {
        "encoding": "inplace",
        "label": "uint256",
        "numberOfBytes": "32"
      }
    }
  }
}