{
  "address": "0x9fE46736679d2D9a65F0992F2272dE9f3c7fa6e0",
  "abi": [
    {
      "inputs": [
        {
          "internalType": "address",
          "name": "nftAddress",
          "type": "address"
        },
        {
          "internalType": "address",
          "name": "wethAddress",
          "type": "address"
        }
      ],
      "stateMutability": "nonpayable",
      "type": "constructor"
    },
    {
      "inputs": [],
      "name": "Market_Expired",
      "type": "error"
    },
    {
      "inputs": [],
      "name": "Market_IsAlreadOwner",
      "type": "error"
    },
    {
      "inputs": [],
      "name": "Market_NonceUsed",
      "type": "error"
    },
    {
      "inputs": [],
      "name": "Market_NotOwner",
      "type": "error"
    },
    {
      "inputs": [],
      "name": "Market_WrongSignature",
      "type": "error"
    },
    {
      "anonymous": false,
      "inputs": [
        {
          "indexed": true,
          "internalType": "address",
          "name": "from",
          "type": "address"
        },
        {
          "indexed": true,
          "internalType": "address",
          "name": "to",
          "type": "address"
        },
        {
          "indexed": false,
          "internalType": "uint256",
          "name": "tokenId",
          "type": "uint256"
        }
      ],
      "name": "Transfer",
      "type": "event"
    },
    {
      "inputs": [
        {
          "components": [
            {
              "internalType": "uint256",
              "name": "tokenId",
              "type": "uint256"
            },
            {
              "internalType": "address",
              "name": "user",
              "type": "address"
            },
            {
              "internalType": "uint256",
              "name": "nonce",
              "type": "uint256"
            },
            {
              "internalType": "uint256",
              "name": "price",
              "type": "uint256"
            },
            {
              "internalType": "string",
              "name": "typeOf",
              "type": "string"
            },
            {
              "internalType": "uint256",
              "name": "timestamp",
              "type": "uint256"
            }
          ],
          "internalType": "struct Market.Message",
          "name": "message",
          "type": "tuple"
        },
        {
          "internalType": "bytes",
          "name": "signature",
          "type": "bytes"
        }
      ],
      "name": "BuyNft",
      "outputs": [],
      "stateMutability": "nonpayable",
      "type": "function"
    },
    {
      "inputs": [
        {
          "components": [
            {
              "internalType": "uint256",
              "name": "tokenId",
              "type": "uint256"
            },
            {
              "internalType": "address",
              "name": "user",
              "type": "address"
            },
            {
              "internalType": "uint256",
              "name": "nonce",
              "type": "uint256"
            },
            {
              "internalType": "uint256",
              "name": "price",
              "type": "uint256"
            },
            {
              "internalType": "string",
              "name": "typeOf",
              "type": "string"
            },
            {
              "internalType": "uint256",
              "name": "timestamp",
              "type": "uint256"
            }
          ],
          "internalType": "struct Market.Message",
          "name": "message",
          "type": "tuple"
        },
        {
          "internalType": "bytes",
          "name": "signature",
          "type": "bytes"
        }
      ],
      "name": "SellNft",
      "outputs": [],
      "stateMutability": "nonpayable",
      "type": "function"
    },
    {
      "inputs": [
        {
          "components": [
            {
              "internalType": "uint256",
              "name": "tokenId",
              "type": "uint256"
            },
            {
              "internalType": "address",
              "name": "user",
              "type": "address"
            },
            {
              "internalType": "uint256",
              "name": "nonce",
              "type": "uint256"
            },
            {
              "internalType": "uint256",
              "name": "price",
              "type": "uint256"
            },
            {
              "internalType": "string",
              "name": "typeOf",
              "type": "string"
            },
            {
              "internalType": "uint256",
              "name": "timestamp",
              "type": "uint256"
            }
          ],
          "internalType": "struct Market.Message",
          "name": "message",
          "type": "tuple"
        },
        {
          "internalType": "bytes",
          "name": "signature",
          "type": "bytes"
        }
      ],
      "name": "getSigner",
      "outputs": [
        {
          "internalType": "address",
          "name": "",
          "type": "address"
        }
      ],
      "stateMutability": "view",
      "type": "function"
    }
  ],
  "transactionHash": "0x4717cbe0bf98093edcf839d103b70fecd8256b3762dafd2dca4dc201872b0289",
  "args": [
    "0xe7f1725E7734CE288F8367e1Bb143E90bb3F0512",
    "0x5FbDB2315678afecb367f032d93F642f64180aa3"
  ],
  "numDeployments": 1,
  "solcInputHash": "d9d0be2e4f9901570c2ca852a033b315",
  "bytecode": "0x60c060405234801561001057600080fd5b50604051610d83380380610d8383398101604081905261002f91610062565b6001600160a01b039182166080521660a052610095565b80516001600160a01b038116811461005d57600080fd5b919050565b6000806040838503121561007557600080fd5b61007e83610046565b915061008c60208401610046565b90509250929050565b60805160a051610cae6100d560003960008181610271015261056301526000818160d801528181610309015281816103d401526105f80152610cae6000f3fe608060405234801561001057600080fd5b50600436106100415760003560e01c806361d75858146100465780637be881581461005b578063995c2c0f1461006e575b600080fd5b610059610054366004610a27565b61009d565b005b610059610069366004610a27565b610396565b61008161007c366004610a27565b610630565b6040516001600160a01b03909116815260200160405180910390f35b604080518082018252600581526437b33332b960d91b60208201526080840152825190516331a9108f60e11b81526000916001600160a01b037f00000000000000000000000000000000000000000000000000000000000000001691636352211e9161010f9160040190815260200190565b602060405180830381865afa15801561012c573d6000803e3d6000fd5b505050506040513d601f19601f820116820180604052508101906101509190610b0c565b90506001600160a01b038116331461017b576040516303b1595d60e01b815260040160405180910390fd5b428360a0015110156101a05760405163af22eecf60e01b815260040160405180910390fd5b336001600160a01b031683602001516001600160a01b0316036101d657604051630405f71160e11b815260040160405180910390fd5b60408084015160009081526020819052205460ff16151560010361020c576040516244b77d60e71b815260040160405180910390fd5b60006102188484610630565b905083602001516001600160a01b0316816001600160a01b031614610250576040516314282e6960e21b815260040160405180910390fd5b602084015160608501516040516323b872dd60e01b81526001600160a01b037f000000000000000000000000000000000000000000000000000000000000000016926323b872dd926102a792879190600401610b29565b6020604051808303816000875af11580156102c6573d6000803e3d6000fd5b505050506040513d601f19601f820116820180604052508101906102ea9190610b4d565b5060208401518451604051632142170760e11b81526001600160a01b037f000000000000000000000000000000000000000000000000000000000000000016926342842e0e926103409287929190600401610b29565b600060405180830381600087803b15801561035a57600080fd5b505af115801561036e573d6000803e3d6000fd5b5050506040948501516000908152602081905294909420805460ff1916600117905550505050565b60408051808201825260048082526373616c6560e01b60208301526080850191909152835191516331a9108f60e11b81526000926001600160a01b037f00000000000000000000000000000000000000000000000000000000000000001692636352211e9261040a92910190815260200190565b602060405180830381865afa158015610427573d6000803e3d6000fd5b505050506040513d601f19601f8201168201806040525081019061044b9190610b0c565b905082602001516001600160a01b0316816001600160a01b031614610483576040516303b1595d60e01b815260040160405180910390fd5b428360a0015110156104a85760405163af22eecf60e01b815260040160405180910390fd5b336001600160a01b038216036104d157604051630405f71160e11b815260040160405180910390fd5b60408084015160009081526020819052205460ff161515600103610507576040516244b77d60e71b815260040160405180910390fd5b60006105138484610630565b9050816001600160a01b0316816001600160a01b031614610547576040516314282e6960e21b815260040160405180910390fd5b60608401516040516323b872dd60e01b81526001600160a01b037f000000000000000000000000000000000000000000000000000000000000000016916323b872dd9161059b913391879190600401610b29565b6020604051808303816000875af11580156105ba573d6000803e3d6000fd5b505050506040513d601f19601f820116820180604052508101906105de9190610b4d565b508351604051632142170760e11b81526001600160a01b037f000000000000000000000000000000000000000000000000000000000000000016916342842e0e91610340918691339190600401610b29565b600080604051806080016040528060528152602001610c2760529139905060006040518060a0016040528060618152602001610bc660619139905060008260405160200161067e9190610b6f565b604051602081830303815290604052805190602001206040516020016106b7906c4e465420506f7274666f6c696f60981b8152600d0190565b604051602081830303815290604052805190602001206040516020016106e490603160f81b815260010190565b60408051601f1981840301815282825280516020918201209083019490945281019190915260608101919091524660808201523060a082015260c0016040516020818303038152906040528051906020012090506000818360405160200161074c9190610b6f565b60405160208183030381529060405280519060200120886000015189604001518a606001518b60a001518c6080015160405160200161078b9190610b6f565b604051602081830303815290604052805190602001208d602001516040516020016107f09796959493929190968752602087019590955260408601939093526060850191909152608084015260a08301526001600160a01b031660c082015260e00190565b6040516020818303038152906040528051906020012060405160200161082d92919061190160f01b81526002810192909252602282015260420190565b60405160208183030381529060405280519060200120905061084f818761085c565b9450505050505b92915050565b60008060008084516041146108775760009350505050610856565b50505060208201516040830151606084015160001a601b8110156108a3576108a0601b82610b9e565b90505b8060ff16601b141580156108bb57508060ff16601c14155b156108cc5760009350505050610856565b60408051600081526020810180835288905260ff831691810191909152606081018490526080810183905260019060a0016020604051602081039080840390855afa15801561091f573d6000803e3d6000fd5b505050602060405103519350505050610856565b634e487b7160e01b600052604160045260246000fd5b60405160c0810167ffffffffffffffff8111828210171561096c5761096c610933565b60405290565b6001600160a01b038116811461098757600080fd5b50565b600067ffffffffffffffff808411156109a5576109a5610933565b604051601f8501601f19908116603f011681019082821181831017156109cd576109cd610933565b816040528093508581528686860111156109e657600080fd5b858560208301376000602087830101525050509392505050565b600082601f830112610a1157600080fd5b610a208383356020850161098a565b9392505050565b60008060408385031215610a3a57600080fd5b823567ffffffffffffffff80821115610a5257600080fd5b9084019060c08287031215610a6657600080fd5b610a6e610949565b823581526020830135610a8081610972565b806020830152506040830135604082015260608301356060820152608083013582811115610aad57600080fd5b8301601f81018813610abe57600080fd5b610acd8882356020840161098a565b60808301525060a083013560a0820152809450506020850135915080821115610af557600080fd5b50610b0285828601610a00565b9150509250929050565b600060208284031215610b1e57600080fd5b8151610a2081610972565b6001600160a01b039384168152919092166020820152604081019190915260600190565b600060208284031215610b5f57600080fd5b81518015158114610a2057600080fd5b6000825160005b81811015610b905760208186018101518583015201610b76565b506000920191825250919050565b60ff818116838216019081111561085657634e487b7160e01b600052601160045260246000fdfe4d6573736167652875696e7432353620746f6b656e49642c75696e74323536206e6f6e63652c75696e743235362070726963652c75696e743235362074696d657374616d702c737472696e6720747970654f662c61646472657373207573657229454950373132446f6d61696e28737472696e67206e616d652c737472696e672076657273696f6e2c75696e7432353620636861696e49642c6164647265737320766572696679696e67436f6e747261637429a26469706673582212200dbf2d0a6cca7482ff38fa4ebc2d4099548dfd126da70b68520eca521580e6f064736f6c63430008130033",
  "devdoc": {
    "kind": "dev",
    "methods": {},
    "version": 1
  },
  "userdoc": {
    "kind": "user",
    "methods": {},
    "version": 1
  },
  "storageLayout": {
    "storage": [
      {
        "astId": 232,
        "contract": "contracts/Market.sol:Market",
        "label": "s_nonceIsUsed",
        "offset": 0,
        "slot": "0",
        "type": "t_mapping(t_uint256,t_bool)"
      }
    ],
    "types": {
      "t_bool": {
        "encoding": "inplace",
        "label": "bool",
        "numberOfBytes": "1"
      },
      "t_mapping(t_uint256,t_bool)": {
        "encoding": "mapping",
        "key": "t_uint256",
        "label": "mapping(uint256 => bool)",
        "numberOfBytes": "32",
        "value": "t_bool"
      },
      "t_uint256": {
        "encoding": "inplace",
        "label": "uint256",
        "numberOfBytes": "32"
      }
    }
  }
}