{
  "address": "0x5FbDB2315678afecb367f032d93F642f64180aa3",
  "abi": [
    {
      "inputs": [
        {
          "internalType": "string",
          "name": "tokenName",
          "type": "string"
        },
        {
          "internalType": "string",
          "name": "tokenSymbol",
          "type": "string"
        }
      ],
      "stateMutability": "nonpayable",
      "type": "constructor"
    },
    {
      "anonymous": false,
      "inputs": [
        {
          "indexed": true,
          "internalType": "address",
          "name": "owner",
          "type": "address"
        },
        {
          "indexed": true,
          "internalType": "address",
          "name": "approved",
          "type": "address"
        },
        {
          "indexed": true,
          "internalType": "uint256",
          "name": "tokenId",
          "type": "uint256"
        }
      ],
      "name": "Approval",
      "type": "event"
    },
    {
      "anonymous": false,
      "inputs": [
        {
          "indexed": true,
          "internalType": "address",
          "name": "owner",
          "type": "address"
        },
        {
          "indexed": true,
          "internalType": "address",
          "name": "operator",
          "type": "address"
        },
        {
          "indexed": false,
          "internalType": "bool",
          "name": "approved",
          "type": "bool"
        }
      ],
      "name": "ApprovalForAll",
      "type": "event"
    },
    {
      "anonymous": false,
      "inputs": [
        {
          "indexed": true,
          "internalType": "uint256",
          "name": "tokenId",
          "type": "uint256"
        },
        {
          "indexed": true,
          "internalType": "address",
          "name": "owner",
          "type": "address"
        }
      ],
      "name": "ArtworkCreated",
      "type": "event"
    },
    {
      "anonymous": false,
      "inputs": [
        {
          "indexed": true,
          "internalType": "address",
          "name": "from",
          "type": "address"
        },
        {
          "indexed": true,
          "internalType": "address",
          "name": "to",
          "type": "address"
        },
        {
          "indexed": true,
          "internalType": "uint256",
          "name": "tokenId",
          "type": "uint256"
        }
      ],
      "name": "Transfer",
      "type": "event"
    },
    {
      "inputs": [
        {
          "internalType": "address",
          "name": "to",
          "type": "address"
        },
        {
          "internalType": "uint256",
          "name": "tokenId",
          "type": "uint256"
        }
      ],
      "name": "approve",
      "outputs": [],
      "stateMutability": "nonpayable",
      "type": "function"
    },
    {
      "inputs": [
        {
          "internalType": "address",
          "name": "owner",
          "type": "address"
        }
      ],
      "name": "balanceOf",
      "outputs": [
        {
          "internalType": "uint256",
          "name": "",
          "type": "uint256"
        }
      ],
      "stateMutability": "view",
      "type": "function"
    },
    {
      "inputs": [
        {
          "internalType": "string",
          "name": "newTokenURI",
          "type": "string"
        }
      ],
      "name": "createArtwork",
      "outputs": [
        {
          "internalType": "uint256",
          "name": "",
          "type": "uint256"
        }
      ],
      "stateMutability": "nonpayable",
      "type": "function"
    },
    {
      "inputs": [
        {
          "internalType": "uint256",
          "name": "tokenId",
          "type": "uint256"
        }
      ],
      "name": "getApproved",
      "outputs": [
        {
          "internalType": "address",
          "name": "",
          "type": "address"
        }
      ],
      "stateMutability": "view",
      "type": "function"
    },
    {
      "inputs": [
        {
          "internalType": "address",
          "name": "owner",
          "type": "address"
        }
      ],
      "name": "getArtworksOfOwner",
      "outputs": [
        {
          "internalType": "uint256[]",
          "name": "",
          "type": "uint256[]"
        }
      ],
      "stateMutability": "view",
      "type": "function"
    },
    {
      "inputs": [
        {
          "internalType": "address",
          "name": "creator",
          "type": "address"
        }
      ],
      "name": "getCreatedArtworks",
      "outputs": [
        {
          "internalType": "uint256[]",
          "name": "",
          "type": "uint256[]"
        }
      ],
      "stateMutability": "view",
      "type": "function"
    },
    {
      "inputs": [
        {
          "internalType": "address",
          "name": "owner",
          "type": "address"
        }
      ],
      "name": "getSeriesName",
      "outputs": [
        {
          "internalType": "string",
          "name": "",
          "type": "string"
        }
      ],
      "stateMutability": "view",
      "type": "function"
    },
    {
      "inputs": [
        {
          "internalType": "address",
          "name": "owner",
          "type": "address"
        }
      ],
      "name": "getSeriesTitleToken",
      "outputs": [
        {
          "internalType": "uint256",
          "name": "",
          "type": "uint256"
        }
      ],
      "stateMutability": "view",
      "type": "function"
    },
    {
      "inputs": [],
      "name": "getTokenAmount",
      "outputs": [
        {
          "internalType": "uint256",
          "name": "",
          "type": "uint256"
        }
      ],
      "stateMutability": "view",
      "type": "function"
    },
    {
      "inputs": [
        {
          "internalType": "address",
          "name": "owner",
          "type": "address"
        },
        {
          "internalType": "address",
          "name": "operator",
          "type": "address"
        }
      ],
      "name": "isApprovedForAll",
      "outputs": [
        {
          "internalType": "bool",
          "name": "",
          "type": "bool"
        }
      ],
      "stateMutability": "view",
      "type": "function"
    },
    {
      "inputs": [],
      "name": "name",
      "outputs": [
        {
          "internalType": "string",
          "name": "",
          "type": "string"
        }
      ],
      "stateMutability": "view",
      "type": "function"
    },
    {
      "inputs": [
        {
          "internalType": "uint256",
          "name": "tokenId",
          "type": "uint256"
        }
      ],
      "name": "ownerOf",
      "outputs": [
        {
          "internalType": "address",
          "name": "",
          "type": "address"
        }
      ],
      "stateMutability": "view",
      "type": "function"
    },
    {
      "inputs": [
        {
          "internalType": "address",
          "name": "",
          "type": "address"
        }
      ],
      "name": "s_addressToSeries",
      "outputs": [
        {
          "internalType": "string",
          "name": "",
          "type": "string"
        }
      ],
      "stateMutability": "view",
      "type": "function"
    },
    {
      "inputs": [
        {
          "internalType": "address",
          "name": "",
          "type": "address"
        }
      ],
      "name": "s_addressToTitleIndex",
      "outputs": [
        {
          "internalType": "uint256",
          "name": "",
          "type": "uint256"
        }
      ],
      "stateMutability": "view",
      "type": "function"
    },
    {
      "inputs": [
        {
          "internalType": "address",
          "name": "",
          "type": "address"
        },
        {
          "internalType": "uint256",
          "name": "",
          "type": "uint256"
        }
      ],
      "name": "s_creatorToTokenIds",
      "outputs": [
        {
          "internalType": "uint256",
          "name": "",
          "type": "uint256"
        }
      ],
      "stateMutability": "view",
      "type": "function"
    },
    {
      "inputs": [
        {
          "internalType": "uint256",
          "name": "",
          "type": "uint256"
        }
      ],
      "name": "s_currentTokenIndex",
      "outputs": [
        {
          "internalType": "uint256",
          "name": "",
          "type": "uint256"
        }
      ],
      "stateMutability": "view",
      "type": "function"
    },
    {
      "inputs": [
        {
          "internalType": "address",
          "name": "",
          "type": "address"
        },
        {
          "internalType": "uint256",
          "name": "",
          "type": "uint256"
        }
      ],
      "name": "s_ownerToTokenIds",
      "outputs": [
        {
          "internalType": "uint256",
          "name": "",
          "type": "uint256"
        }
      ],
      "stateMutability": "view",
      "type": "function"
    },
    {
      "inputs": [],
      "name": "s_tokenCounter",
      "outputs": [
        {
          "internalType": "uint256",
          "name": "",
          "type": "uint256"
        }
      ],
      "stateMutability": "view",
      "type": "function"
    },
    {
      "inputs": [
        {
          "internalType": "uint256",
          "name": "",
          "type": "uint256"
        }
      ],
      "name": "s_tokenIdToCreator",
      "outputs": [
        {
          "internalType": "address",
          "name": "",
          "type": "address"
        }
      ],
      "stateMutability": "view",
      "type": "function"
    },
    {
      "inputs": [
        {
          "internalType": "uint256",
          "name": "",
          "type": "uint256"
        }
      ],
      "name": "s_tokenIdToURI",
      "outputs": [
        {
          "internalType": "string",
          "name": "",
          "type": "string"
        }
      ],
      "stateMutability": "view",
      "type": "function"
    },
    {
      "inputs": [
        {
          "internalType": "address",
          "name": "from",
          "type": "address"
        },
        {
          "internalType": "address",
          "name": "to",
          "type": "address"
        },
        {
          "internalType": "uint256",
          "name": "tokenId",
          "type": "uint256"
        }
      ],
      "name": "safeTransferFrom",
      "outputs": [],
      "stateMutability": "nonpayable",
      "type": "function"
    },
    {
      "inputs": [
        {
          "internalType": "address",
          "name": "from",
          "type": "address"
        },
        {
          "internalType": "address",
          "name": "to",
          "type": "address"
        },
        {
          "internalType": "uint256",
          "name": "tokenId",
          "type": "uint256"
        },
        {
          "internalType": "bytes",
          "name": "data",
          "type": "bytes"
        }
      ],
      "name": "safeTransferFrom",
      "outputs": [],
      "stateMutability": "nonpayable",
      "type": "function"
    },
    {
      "inputs": [
        {
          "internalType": "address",
          "name": "operator",
          "type": "address"
        },
        {
          "internalType": "bool",
          "name": "approved",
          "type": "bool"
        }
      ],
      "name": "setApprovalForAll",
      "outputs": [],
      "stateMutability": "nonpayable",
      "type": "function"
    },
    {
      "inputs": [
        {
          "internalType": "string",
          "name": "seriesName",
          "type": "string"
        }
      ],
      "name": "setSeriesName",
      "outputs": [],
      "stateMutability": "nonpayable",
      "type": "function"
    },
    {
      "inputs": [
        {
          "internalType": "uint256",
          "name": "titleIndex",
          "type": "uint256"
        }
      ],
      "name": "setSeriesTitleIndex",
      "outputs": [],
      "stateMutability": "nonpayable",
      "type": "function"
    },
    {
      "inputs": [
        {
          "internalType": "bytes4",
          "name": "interfaceId",
          "type": "bytes4"
        }
      ],
      "name": "supportsInterface",
      "outputs": [
        {
          "internalType": "bool",
          "name": "",
          "type": "bool"
        }
      ],
      "stateMutability": "view",
      "type": "function"
    },
    {
      "inputs": [],
      "name": "symbol",
      "outputs": [
        {
          "internalType": "string",
          "name": "",
          "type": "string"
        }
      ],
      "stateMutability": "view",
      "type": "function"
    },
    {
      "inputs": [
        {
          "internalType": "uint256",
          "name": "tokenId",
          "type": "uint256"
        }
      ],
      "name": "tokenURI",
      "outputs": [
        {
          "internalType": "string",
          "name": "",
          "type": "string"
        }
      ],
      "stateMutability": "view",
      "type": "function"
    },
    {
      "inputs": [
        {
          "internalType": "address",
          "name": "from",
          "type": "address"
        },
        {
          "internalType": "address",
          "name": "to",
          "type": "address"
        },
        {
          "internalType": "uint256",
          "name": "tokenId",
          "type": "uint256"
        }
      ],
      "name": "transferFrom",
      "outputs": [],
      "stateMutability": "nonpayable",
      "type": "function"
    }
  ],
  "transactionHash": "0x4bdaeac03eb4d88b6d8103c841f14b97909a257c0e8bda00c8e0a06b7de5f327",
  "args": [
    "NFT Market",
    "ART"
  ],
  "numDeployments": 1,
  "solcInputHash": "e9872a0473c14ac108890d7a287f4e17",
  "bytecode": "0x60a06040523480156200001157600080fd5b5060405162001e0138038062001e0183398101604081905262000034916200012c565b8181600062000044838262000225565b50600162000053828262000225565b5050336080525050600060065550620002f1565b634e487b7160e01b600052604160045260246000fd5b600082601f8301126200008f57600080fd5b81516001600160401b0380821115620000ac57620000ac62000067565b604051601f8301601f19908116603f01168101908282118183101715620000d757620000d762000067565b81604052838152602092508683858801011115620000f457600080fd5b600091505b83821015620001185785820183015181830184015290820190620000f9565b600093810190920192909252949350505050565b600080604083850312156200014057600080fd5b82516001600160401b03808211156200015857600080fd5b62000166868387016200007d565b935060208501519150808211156200017d57600080fd5b506200018c858286016200007d565b9150509250929050565b600181811c90821680620001ab57607f821691505b602082108103620001cc57634e487b7160e01b600052602260045260246000fd5b50919050565b601f8211156200022057600081815260208120601f850160051c81016020861015620001fb5750805b601f850160051c820191505b818110156200021c5782815560010162000207565b5050505b505050565b81516001600160401b0381111562000241576200024162000067565b620002598162000252845462000196565b84620001d2565b602080601f831160018114620002915760008415620002785750858301515b600019600386901b1c1916600185901b1785556200021c565b600085815260208120601f198616915b82811015620002c257888601518255948401946001909101908401620002a1565b5085821015620002e15787850151600019600388901b60f8161c191681555b5050505050600190811b01905550565b608051611af76200030a60003960005050611af76000f3fe608060405234801561001057600080fd5b50600436106101cf5760003560e01c806370a0823111610104578063b88d4fde116100a2578063d5ad19bc11610071578063d5ad19bc14610421578063df13455414610434578063e985e9c514610447578063fd5f32e61461045a57600080fd5b8063b88d4fde146103b2578063c0263907146103c5578063c87b56dd146103ee578063ca2a75a91461040157600080fd5b806395cb7608116100de57806395cb76081461035b57806395d89b41146103845780639c5219c11461038c578063a22cb4651461039f57600080fd5b806370a082311461032d57806375f91ec814610340578063804bb0c61461034857600080fd5b806342842e0e1161017157806353f08e8b1161014b57806353f08e8b146102c757806360d64068146102e75780636352211e146102fa5780636f1e83311461030d57600080fd5b806342842e0e1461028e5780634e890106146102a157806351ef703c146102b457600080fd5b8063095ea7b3116101ad578063095ea7b31461023c5780630b21a83b1461025157806318d62d951461026857806323b872dd1461027b57600080fd5b806301ffc9a7146101d457806306fdde03146101fc578063081812fc14610211575b600080fd5b6101e76101e23660046114a4565b61046d565b60405190151581526020015b60405180910390f35b6102046104bf565b6040516101f3919061150e565b61022461021f366004611521565b610551565b6040516001600160a01b0390911681526020016101f3565b61024f61024a366004611556565b610578565b005b61025a60065481565b6040519081526020016101f3565b610204610276366004611521565b610692565b61024f610289366004611580565b61072c565b61024f61029c366004611580565b61075d565b61025a6102af366004611648565b610778565b61025a6102c2366004611556565b61086d565b61025a6102d5366004611521565b60096020526000908152604090205481565b61025a6102f5366004611556565b61089e565b610224610308366004611521565b6108ba565b61025a61031b366004611691565b600d6020526000908152604090205481565b61025a61033b366004611691565b61091a565b60065461025a565b610204610356366004611691565b6109a0565b610224610369366004611521565b6008602052600090815260409020546001600160a01b031681565b610204610a4c565b61020461039a366004611691565b610a5b565b61024f6103ad3660046116ac565b610a74565b61024f6103c03660046116e8565b610a83565b61025a6103d3366004611691565b6001600160a01b03166000908152600d602052604090205490565b6102046103fc366004611521565b610abb565b61041461040f366004611691565b610ad8565b6040516101f39190611764565b61041461042f366004611691565b610b43565b61024f610442366004611521565b610bad565b6101e76104553660046117a8565b610c65565b61024f610468366004611648565b610c93565b60006001600160e01b031982166380ac58cd60e01b148061049e57506001600160e01b03198216635b5e139f60e01b145b806104b957506301ffc9a760e01b6001600160e01b03198316145b92915050565b6060600080546104ce906117db565b80601f01602080910402602001604051908101604052809291908181526020018280546104fa906117db565b80156105475780601f1061051c57610100808354040283529160200191610547565b820191906000526020600020905b81548152906001019060200180831161052a57829003601f168201915b5050505050905090565b600061055c82610cac565b506000908152600460205260409020546001600160a01b031690565b6000610583826108ba565b9050806001600160a01b0316836001600160a01b0316036105f55760405162461bcd60e51b815260206004820152602160248201527f4552433732313a20617070726f76616c20746f2063757272656e74206f776e656044820152603960f91b60648201526084015b60405180910390fd5b336001600160a01b038216148061061157506106118133610c65565b6106835760405162461bcd60e51b815260206004820152603d60248201527f4552433732313a20617070726f76652063616c6c6572206973206e6f7420746f60448201527f6b656e206f776e6572206f7220617070726f76656420666f7220616c6c00000060648201526084016105ec565b61068d8383610d0e565b505050565b600760205260009081526040902080546106ab906117db565b80601f01602080910402602001604051908101604052809291908181526020018280546106d7906117db565b80156107245780601f106106f957610100808354040283529160200191610724565b820191906000526020600020905b81548152906001019060200180831161070757829003601f168201915b505050505081565b6107363382610d7c565b6107525760405162461bcd60e51b81526004016105ec90611815565b61068d838383610ddb565b61068d83838360405180602001604052806000815250610a83565b6006546000906107883382610f47565b60008181526007602052604090206107a084826118a8565b50600081815260086020908152604080832080546001600160a01b03191633908117909155808452600a835290832080546001818101835582865293852001859055925290546107f0919061197e565b600082815260096020908152604080832093909355338252600b81529181208054600181810183559183529290912090910182905560065461083191611991565b600655336000818152600a60205260405183917f5ff4663d5496965b8dd6f9073898984de68e01ea2508cf1f66ef86c755feeb8391a392915050565b600a602052816000526040600020818154811061088957600080fd5b90600052602060002001600091509150505481565b600b602052816000526040600020818154811061088957600080fd5b6000818152600260205260408120546001600160a01b0316806104b95760405162461bcd60e51b8152602060048201526018602482015277115490cdcc8c4e881a5b9d985b1a59081d1bdad95b88125160421b60448201526064016105ec565b60006001600160a01b0382166109845760405162461bcd60e51b815260206004820152602960248201527f4552433732313a2061646472657373207a65726f206973206e6f7420612076616044820152683634b21037bbb732b960b91b60648201526084016105ec565b506001600160a01b031660009081526003602052604090205490565b6001600160a01b0381166000908152600c602052604090208054606091906109c7906117db565b80601f01602080910402602001604051908101604052809291908181526020018280546109f3906117db565b8015610a405780601f10610a1557610100808354040283529160200191610a40565b820191906000526020600020905b815481529060010190602001808311610a2357829003601f168201915b50505050509050919050565b6060600180546104ce906117db565b600c60205260009081526040902080546106ab906117db565b610a7f338383610f61565b5050565b610a8d3383610d7c565b610aa95760405162461bcd60e51b81526004016105ec90611815565b610ab58484848461102f565b50505050565b60008181526007602052604090208054606091906109c7906117db565b6001600160a01b0381166000908152600b6020908152604091829020805483518184028101840190945280845260609392830182828015610a4057602002820191906000526020600020905b815481526020019060010190808311610b245750505050509050919050565b6001600160a01b0381166000908152600a6020908152604091829020805483518184028101840190945280845260609392830182828015610a405760200282019190600052602060002090815481526020019060010190808311610b245750505050509050919050565b336000908152600b60205260409020548110610c005760405162461bcd60e51b8152602060048201526012602482015271496e646578206f7574206f662072616e676560701b60448201526064016105ec565b336000908152600d60205260409020548103610c535760405162461bcd60e51b8152602060048201526012602482015271125b99195e081a5cc81a59195b9d1a58d85b60721b60448201526064016105ec565b336000908152600d6020526040902055565b6001600160a01b03918216600090815260056020908152604080832093909416825291909152205460ff1690565b336000908152600c60205260409020610a7f82826118a8565b6000818152600260205260409020546001600160a01b0316610d0b5760405162461bcd60e51b8152602060048201526018602482015277115490cdcc8c4e881a5b9d985b1a59081d1bdad95b88125160421b60448201526064016105ec565b50565b600081815260046020526040902080546001600160a01b0319166001600160a01b0384169081179091558190610d43826108ba565b6001600160a01b03167f8c5be1e5ebec7d5bd14f71427d1e84f3dd0314c0f7b2291e5b200ac8c7c3b92560405160405180910390a45050565b600080610d88836108ba565b9050806001600160a01b0316846001600160a01b03161480610daf5750610daf8185610c65565b80610dd35750836001600160a01b0316610dc884610551565b6001600160a01b0316145b949350505050565b826001600160a01b0316610dee826108ba565b6001600160a01b031614610e145760405162461bcd60e51b81526004016105ec906119a4565b6001600160a01b038216610e765760405162461bcd60e51b8152602060048201526024808201527f4552433732313a207472616e7366657220746f20746865207a65726f206164646044820152637265737360e01b60648201526084016105ec565b826001600160a01b0316610e89826108ba565b6001600160a01b031614610eaf5760405162461bcd60e51b81526004016105ec906119a4565b600081815260046020908152604080832080546001600160a01b03199081169091556001600160a01b0387811680865260038552838620805460001901905590871680865283862080546001019055868652600290945282852080549092168417909155905184937fddf252ad1be2c89b69c2b068fc378daa952ba7f163c4a11628f55a4df523b3ef91a461068d8383836001611062565b610a7f8282604051806020016040528060008152506111c5565b816001600160a01b0316836001600160a01b031603610fc25760405162461bcd60e51b815260206004820152601960248201527f4552433732313a20617070726f766520746f2063616c6c65720000000000000060448201526064016105ec565b6001600160a01b03838116600081815260056020908152604080832094871680845294825291829020805460ff191686151590811790915591519182527f17307eab39ab6107e8899845ad3d59bd9653f200f220920489ca2b5937696c31910160405180910390a3505050565b61103a848484610ddb565b611046848484846111f8565b610ab55760405162461bcd60e51b81526004016105ec906119e9565b6001600160a01b0384811615908416158161115f576000848152600960209081526040808320546001600160a01b038a168452600a909252822080549192916110ad9060019061197e565b815481106110bd576110bd611a3b565b9060005260206000200154905080600a60008a6001600160a01b03166001600160a01b03168152602001908152602001600020838154811061110157611101611a3b565b60009182526020808320909101929092556001600160a01b038a168152600a9091526040902080548061113657611136611a51565b600082815260208082208301600019908101839055909201909255918152600990915260409020555b8015801561116b575081155b156111bd576001600160a01b0385166000818152600a602090815260408220805460018181018355828552928420018890559290915290546111ad919061197e565b6000858152600960205260409020555b505050505050565b6111cf83836112f9565b6111dc60008484846111f8565b61068d5760405162461bcd60e51b81526004016105ec906119e9565b60006001600160a01b0384163b156112ee57604051630a85bd0160e11b81526001600160a01b0385169063150b7a029061123c903390899088908890600401611a67565b6020604051808303816000875af1925050508015611277575060408051601f3d908101601f1916820190925261127491810190611aa4565b60015b6112d4573d8080156112a5576040519150601f19603f3d011682016040523d82523d6000602084013e6112aa565b606091505b5080516000036112cc5760405162461bcd60e51b81526004016105ec906119e9565b805181602001fd5b6001600160e01b031916630a85bd0160e11b149050610dd3565b506001949350505050565b6001600160a01b03821661134f5760405162461bcd60e51b815260206004820181905260248201527f4552433732313a206d696e7420746f20746865207a65726f206164647265737360448201526064016105ec565b6000818152600260205260409020546001600160a01b0316156113b45760405162461bcd60e51b815260206004820152601c60248201527f4552433732313a20746f6b656e20616c7265616479206d696e7465640000000060448201526064016105ec565b6000818152600260205260409020546001600160a01b0316156114195760405162461bcd60e51b815260206004820152601c60248201527f4552433732313a20746f6b656e20616c7265616479206d696e7465640000000060448201526064016105ec565b6001600160a01b038216600081815260036020908152604080832080546001019055848352600290915280822080546001600160a01b0319168417905551839291907fddf252ad1be2c89b69c2b068fc378daa952ba7f163c4a11628f55a4df523b3ef908290a4610a7f600083836001611062565b6001600160e01b031981168114610d0b57600080fd5b6000602082840312156114b657600080fd5b81356114c18161148e565b9392505050565b6000815180845260005b818110156114ee576020818501810151868301820152016114d2565b506000602082860101526020601f19601f83011685010191505092915050565b6020815260006114c160208301846114c8565b60006020828403121561153357600080fd5b5035919050565b80356001600160a01b038116811461155157600080fd5b919050565b6000806040838503121561156957600080fd5b6115728361153a565b946020939093013593505050565b60008060006060848603121561159557600080fd5b61159e8461153a565b92506115ac6020850161153a565b9150604084013590509250925092565b634e487b7160e01b600052604160045260246000fd5b600067ffffffffffffffff808411156115ed576115ed6115bc565b604051601f8501601f19908116603f01168101908282118183101715611615576116156115bc565b8160405280935085815286868601111561162e57600080fd5b858560208301376000602087830101525050509392505050565b60006020828403121561165a57600080fd5b813567ffffffffffffffff81111561167157600080fd5b8201601f8101841361168257600080fd5b610dd3848235602084016115d2565b6000602082840312156116a357600080fd5b6114c18261153a565b600080604083850312156116bf57600080fd5b6116c88361153a565b9150602083013580151581146116dd57600080fd5b809150509250929050565b600080600080608085870312156116fe57600080fd5b6117078561153a565b93506117156020860161153a565b925060408501359150606085013567ffffffffffffffff81111561173857600080fd5b8501601f8101871361174957600080fd5b611758878235602084016115d2565b91505092959194509250565b6020808252825182820181905260009190848201906040850190845b8181101561179c57835183529284019291840191600101611780565b50909695505050505050565b600080604083850312156117bb57600080fd5b6117c48361153a565b91506117d26020840161153a565b90509250929050565b600181811c908216806117ef57607f821691505b60208210810361180f57634e487b7160e01b600052602260045260246000fd5b50919050565b6020808252602d908201527f4552433732313a2063616c6c6572206973206e6f7420746f6b656e206f776e6560408201526c1c881bdc88185c1c1c9bdd9959609a1b606082015260800190565b601f82111561068d57600081815260208120601f850160051c810160208610156118895750805b601f850160051c820191505b818110156111bd57828155600101611895565b815167ffffffffffffffff8111156118c2576118c26115bc565b6118d6816118d084546117db565b84611862565b602080601f83116001811461190b57600084156118f35750858301515b600019600386901b1c1916600185901b1785556111bd565b600085815260208120601f198616915b8281101561193a5788860151825594840194600190910190840161191b565b50858210156119585787850151600019600388901b60f8161c191681555b5050505050600190811b01905550565b634e487b7160e01b600052601160045260246000fd5b818103818111156104b9576104b9611968565b808201808211156104b9576104b9611968565b60208082526025908201527f4552433732313a207472616e736665722066726f6d20696e636f72726563742060408201526437bbb732b960d91b606082015260800190565b60208082526032908201527f4552433732313a207472616e7366657220746f206e6f6e20455243373231526560408201527131b2b4bb32b91034b6b83632b6b2b73a32b960711b606082015260800190565b634e487b7160e01b600052603260045260246000fd5b634e487b7160e01b600052603160045260246000fd5b6001600160a01b0385811682528416602082015260408101839052608060608201819052600090611a9a908301846114c8565b9695505050505050565b600060208284031215611ab657600080fd5b81516114c18161148e56fea26469706673582212200c6837fc2b0ff11147d1be4fe10e200c90e0e245fb1ebee91edb2f8eb296f89964736f6c63430008130033",
  "devdoc": {
    "events": {
      "Approval(address,address,uint256)": {
        "details": "Emitted when `owner` enables `approved` to manage the `tokenId` token."
      },
      "ApprovalForAll(address,address,bool)": {
        "details": "Emitted when `owner` enables or disables (`approved`) `operator` to manage all of its assets."
      },
      "Transfer(address,address,uint256)": {
        "details": "Emitted when `tokenId` token is transferred from `from` to `to`."
      }
    },
    "kind": "dev",
    "methods": {
      "approve(address,uint256)": {
        "details": "See {IERC721-approve}."
      },
      "balanceOf(address)": {
        "details": "See {IERC721-balanceOf}."
      },
      "getApproved(uint256)": {
        "details": "See {IERC721-getApproved}."
      },
      "isApprovedForAll(address,address)": {
        "details": "See {IERC721-isApprovedForAll}."
      },
      "name()": {
        "details": "See {IERC721Metadata-name}."
      },
      "ownerOf(uint256)": {
        "details": "See {IERC721-ownerOf}."
      },
      "safeTransferFrom(address,address,uint256)": {
        "details": "See {IERC721-safeTransferFrom}."
      },
      "safeTransferFrom(address,address,uint256,bytes)": {
        "details": "See {IERC721-safeTransferFrom}."
      },
      "setApprovalForAll(address,bool)": {
        "details": "See {IERC721-setApprovalForAll}."
      },
      "supportsInterface(bytes4)": {
        "details": "See {IERC165-supportsInterface}."
      },
      "symbol()": {
        "details": "See {IERC721Metadata-symbol}."
      },
      "tokenURI(uint256)": {
        "details": "See {IERC721Metadata-tokenURI}."
      },
      "transferFrom(address,address,uint256)": {
        "details": "See {IERC721-transferFrom}."
      }
    },
    "version": 1
  },
  "userdoc": {
    "kind": "user",
    "methods": {},
    "version": 1
  },
  "storageLayout": {
    "storage": [
      {
        "astId": 25,
        "contract": "contracts/NFTtoken.sol:NFTtoken",
        "label": "_name",
        "offset": 0,
        "slot": "0",
        "type": "t_string_storage"
      },
      {
        "astId": 27,
        "contract": "contracts/NFTtoken.sol:NFTtoken",
        "label": "_symbol",
        "offset": 0,
        "slot": "1",
        "type": "t_string_storage"
      },
      {
        "astId": 31,
        "contract": "contracts/NFTtoken.sol:NFTtoken",
        "label": "_owners",
        "offset": 0,
        "slot": "2",
        "type": "t_mapping(t_uint256,t_address)"
      },
      {
        "astId": 35,
        "contract": "contracts/NFTtoken.sol:NFTtoken",
        "label": "_balances",
        "offset": 0,
        "slot": "3",
        "type": "t_mapping(t_address,t_uint256)"
      },
      {
        "astId": 39,
        "contract": "contracts/NFTtoken.sol:NFTtoken",
        "label": "_tokenApprovals",
        "offset": 0,
        "slot": "4",
        "type": "t_mapping(t_uint256,t_address)"
      },
      {
        "astId": 45,
        "contract": "contracts/NFTtoken.sol:NFTtoken",
        "label": "_operatorApprovals",
        "offset": 0,
        "slot": "5",
        "type": "t_mapping(t_address,t_mapping(t_address,t_bool))"
      },
      {
        "astId": 2684,
        "contract": "contracts/NFTtoken.sol:NFTtoken",
        "label": "s_tokenCounter",
        "offset": 0,
        "slot": "6",
        "type": "t_uint256"
      },
      {
        "astId": 2688,
        "contract": "contracts/NFTtoken.sol:NFTtoken",
        "label": "s_tokenIdToURI",
        "offset": 0,
        "slot": "7",
        "type": "t_mapping(t_uint256,t_string_storage)"
      },
      {
        "astId": 2692,
        "contract": "contracts/NFTtoken.sol:NFTtoken",
        "label": "s_tokenIdToCreator",
        "offset": 0,
        "slot": "8",
        "type": "t_mapping(t_uint256,t_address)"
      },
      {
        "astId": 2696,
        "contract": "contracts/NFTtoken.sol:NFTtoken",
        "label": "s_currentTokenIndex",
        "offset": 0,
        "slot": "9",
        "type": "t_mapping(t_uint256,t_uint256)"
      },
      {
        "astId": 2701,
        "contract": "contracts/NFTtoken.sol:NFTtoken",
        "label": "s_ownerToTokenIds",
        "offset": 0,
        "slot": "10",
        "type": "t_mapping(t_address,t_array(t_uint256)dyn_storage)"
      },
      {
        "astId": 2706,
        "contract": "contracts/NFTtoken.sol:NFTtoken",
        "label": "s_creatorToTokenIds",
        "offset": 0,
        "slot": "11",
        "type": "t_mapping(t_address,t_array(t_uint256)dyn_storage)"
      },
      {
        "astId": 2710,
        "contract": "contracts/NFTtoken.sol:NFTtoken",
        "label": "s_addressToSeries",
        "offset": 0,
        "slot": "12",
        "type": "t_mapping(t_address,t_string_storage)"
      },
      {
        "astId": 2714,
        "contract": "contracts/NFTtoken.sol:NFTtoken",
        "label": "s_addressToTitleIndex",
        "offset": 0,
        "slot": "13",
        "type": "t_mapping(t_address,t_uint256)"
      }
    ],
    "types": {
      "t_address": {
        "encoding": "inplace",
        "label": "address",
        "numberOfBytes": "20"
      },
      "t_array(t_uint256)dyn_storage": {
        "base": "t_uint256",
        "encoding": "dynamic_array",
        "label": "uint256[]",
        "numberOfBytes": "32"
      },
      "t_bool": {
        "encoding": "inplace",
        "label": "bool",
        "numberOfBytes": "1"
      },
      "t_mapping(t_address,t_array(t_uint256)dyn_storage)": {
        "encoding": "mapping",
        "key": "t_address",
        "label": "mapping(address => uint256[])",
        "numberOfBytes": "32",
        "value": "t_array(t_uint256)dyn_storage"
      },
      "t_mapping(t_address,t_bool)": {
        "encoding": "mapping",
        "key": "t_address",
        "label": "mapping(address => bool)",
        "numberOfBytes": "32",
        "value": "t_bool"
      },
      "t_mapping(t_address,t_mapping(t_address,t_bool))": {
        "encoding": "mapping",
        "key": "t_address",
        "label": "mapping(address => mapping(address => bool))",
        "numberOfBytes": "32",
        "value": "t_mapping(t_address,t_bool)"
      },
      "t_mapping(t_address,t_string_storage)": {
        "encoding": "mapping",
        "key": "t_address",
        "label": "mapping(address => string)",
        "numberOfBytes": "32",
        "value": "t_string_storage"
      },
      "t_mapping(t_address,t_uint256)": {
        "encoding": "mapping",
        "key": "t_address",
        "label": "mapping(address => uint256)",
        "numberOfBytes": "32",
        "value": "t_uint256"
      },
      "t_mapping(t_uint256,t_address)": {
        "encoding": "mapping",
        "key": "t_uint256",
        "label": "mapping(uint256 => address)",
        "numberOfBytes": "32",
        "value": "t_address"
      },
      "t_mapping(t_uint256,t_string_storage)": {
        "encoding": "mapping",
        "key": "t_uint256",
        "label": "mapping(uint256 => string)",
        "numberOfBytes": "32",
        "value": "t_string_storage"
      },
      "t_mapping(t_uint256,t_uint256)": {
        "encoding": "mapping",
        "key": "t_uint256",
        "label": "mapping(uint256 => uint256)",
        "numberOfBytes": "32",
        "value": "t_uint256"
      },
      "t_string_storage": {
        "encoding": "bytes",
        "label": "string",
        "numberOfBytes": "32"
      },
      "t_uint256": {
        "encoding": "inplace",
        "label": "uint256",
        "numberOfBytes": "32"
      }
    }
  }
}