{
  "address": "0x5FbDB2315678afecb367f032d93F642f64180aa3",
  "abi": [
    {
      "inputs": [
        {
          "internalType": "string",
          "name": "tokenName",
          "type": "string"
        },
        {
          "internalType": "string",
          "name": "tokenSymbol",
          "type": "string"
        }
      ],
      "stateMutability": "nonpayable",
      "type": "constructor"
    },
    {
      "anonymous": false,
      "inputs": [
        {
          "indexed": true,
          "internalType": "address",
          "name": "owner",
          "type": "address"
        },
        {
          "indexed": true,
          "internalType": "address",
          "name": "approved",
          "type": "address"
        },
        {
          "indexed": true,
          "internalType": "uint256",
          "name": "tokenId",
          "type": "uint256"
        }
      ],
      "name": "Approval",
      "type": "event"
    },
    {
      "anonymous": false,
      "inputs": [
        {
          "indexed": true,
          "internalType": "address",
          "name": "owner",
          "type": "address"
        },
        {
          "indexed": true,
          "internalType": "address",
          "name": "operator",
          "type": "address"
        },
        {
          "indexed": false,
          "internalType": "bool",
          "name": "approved",
          "type": "bool"
        }
      ],
      "name": "ApprovalForAll",
      "type": "event"
    },
    {
      "anonymous": false,
      "inputs": [
        {
          "indexed": true,
          "internalType": "uint256",
          "name": "tokenId",
          "type": "uint256"
        },
        {
          "indexed": true,
          "internalType": "address",
          "name": "owner",
          "type": "address"
        }
      ],
      "name": "ArtworkCreated",
      "type": "event"
    },
    {
      "anonymous": false,
      "inputs": [
        {
          "indexed": true,
          "internalType": "address",
          "name": "from",
          "type": "address"
        },
        {
          "indexed": true,
          "internalType": "address",
          "name": "to",
          "type": "address"
        },
        {
          "indexed": true,
          "internalType": "uint256",
          "name": "tokenId",
          "type": "uint256"
        }
      ],
      "name": "Transfer",
      "type": "event"
    },
    {
      "inputs": [
        {
          "internalType": "address",
          "name": "to",
          "type": "address"
        },
        {
          "internalType": "uint256",
          "name": "tokenId",
          "type": "uint256"
        }
      ],
      "name": "approve",
      "outputs": [],
      "stateMutability": "nonpayable",
      "type": "function"
    },
    {
      "inputs": [
        {
          "internalType": "address",
          "name": "owner",
          "type": "address"
        }
      ],
      "name": "balanceOf",
      "outputs": [
        {
          "internalType": "uint256",
          "name": "",
          "type": "uint256"
        }
      ],
      "stateMutability": "view",
      "type": "function"
    },
    {
      "inputs": [
        {
          "internalType": "string",
          "name": "newTokenURI",
          "type": "string"
        }
      ],
      "name": "createArtwork",
      "outputs": [
        {
          "internalType": "uint256",
          "name": "",
          "type": "uint256"
        }
      ],
      "stateMutability": "nonpayable",
      "type": "function"
    },
    {
      "inputs": [
        {
          "internalType": "uint256",
          "name": "tokenId",
          "type": "uint256"
        }
      ],
      "name": "getApproved",
      "outputs": [
        {
          "internalType": "address",
          "name": "",
          "type": "address"
        }
      ],
      "stateMutability": "view",
      "type": "function"
    },
    {
      "inputs": [
        {
          "internalType": "address",
          "name": "owner",
          "type": "address"
        }
      ],
      "name": "getArtworksOfOwner",
      "outputs": [
        {
          "internalType": "uint256[]",
          "name": "",
          "type": "uint256[]"
        }
      ],
      "stateMutability": "view",
      "type": "function"
    },
    {
      "inputs": [
        {
          "internalType": "address",
          "name": "creator",
          "type": "address"
        }
      ],
      "name": "getCreatedArtworks",
      "outputs": [
        {
          "internalType": "uint256[]",
          "name": "",
          "type": "uint256[]"
        }
      ],
      "stateMutability": "view",
      "type": "function"
    },
    {
      "inputs": [
        {
          "internalType": "uint256",
          "name": "tokenId",
          "type": "uint256"
        }
      ],
      "name": "getCreator",
      "outputs": [
        {
          "internalType": "address",
          "name": "",
          "type": "address"
        }
      ],
      "stateMutability": "view",
      "type": "function"
    },
    {
      "inputs": [
        {
          "internalType": "uint256",
          "name": "tokenId",
          "type": "uint256"
        }
      ],
      "name": "getOwner",
      "outputs": [
        {
          "internalType": "address",
          "name": "",
          "type": "address"
        }
      ],
      "stateMutability": "view",
      "type": "function"
    },
    {
      "inputs": [
        {
          "internalType": "address",
          "name": "owner",
          "type": "address"
        }
      ],
      "name": "getSeriesName",
      "outputs": [
        {
          "internalType": "string",
          "name": "",
          "type": "string"
        }
      ],
      "stateMutability": "view",
      "type": "function"
    },
    {
      "inputs": [
        {
          "internalType": "address",
          "name": "owner",
          "type": "address"
        }
      ],
      "name": "getSeriesTitleToken",
      "outputs": [
        {
          "internalType": "uint256",
          "name": "",
          "type": "uint256"
        }
      ],
      "stateMutability": "view",
      "type": "function"
    },
    {
      "inputs": [],
      "name": "getTokenAmount",
      "outputs": [
        {
          "internalType": "uint256",
          "name": "",
          "type": "uint256"
        }
      ],
      "stateMutability": "view",
      "type": "function"
    },
    {
      "inputs": [
        {
          "internalType": "address",
          "name": "owner",
          "type": "address"
        },
        {
          "internalType": "address",
          "name": "operator",
          "type": "address"
        }
      ],
      "name": "isApprovedForAll",
      "outputs": [
        {
          "internalType": "bool",
          "name": "",
          "type": "bool"
        }
      ],
      "stateMutability": "view",
      "type": "function"
    },
    {
      "inputs": [],
      "name": "name",
      "outputs": [
        {
          "internalType": "string",
          "name": "",
          "type": "string"
        }
      ],
      "stateMutability": "view",
      "type": "function"
    },
    {
      "inputs": [
        {
          "internalType": "uint256",
          "name": "tokenId",
          "type": "uint256"
        }
      ],
      "name": "ownerOf",
      "outputs": [
        {
          "internalType": "address",
          "name": "",
          "type": "address"
        }
      ],
      "stateMutability": "view",
      "type": "function"
    },
    {
      "inputs": [
        {
          "internalType": "address",
          "name": "",
          "type": "address"
        }
      ],
      "name": "s_addressToSeries",
      "outputs": [
        {
          "internalType": "string",
          "name": "",
          "type": "string"
        }
      ],
      "stateMutability": "view",
      "type": "function"
    },
    {
      "inputs": [
        {
          "internalType": "address",
          "name": "",
          "type": "address"
        }
      ],
      "name": "s_addressToTitleIndex",
      "outputs": [
        {
          "internalType": "uint256",
          "name": "",
          "type": "uint256"
        }
      ],
      "stateMutability": "view",
      "type": "function"
    },
    {
      "inputs": [
        {
          "internalType": "address",
          "name": "",
          "type": "address"
        },
        {
          "internalType": "uint256",
          "name": "",
          "type": "uint256"
        }
      ],
      "name": "s_creatorToTokenIds",
      "outputs": [
        {
          "internalType": "uint256",
          "name": "",
          "type": "uint256"
        }
      ],
      "stateMutability": "view",
      "type": "function"
    },
    {
      "inputs": [
        {
          "internalType": "uint256",
          "name": "",
          "type": "uint256"
        }
      ],
      "name": "s_currentTokenIndex",
      "outputs": [
        {
          "internalType": "uint256",
          "name": "",
          "type": "uint256"
        }
      ],
      "stateMutability": "view",
      "type": "function"
    },
    {
      "inputs": [
        {
          "internalType": "address",
          "name": "",
          "type": "address"
        },
        {
          "internalType": "uint256",
          "name": "",
          "type": "uint256"
        }
      ],
      "name": "s_ownerToTokenIds",
      "outputs": [
        {
          "internalType": "uint256",
          "name": "",
          "type": "uint256"
        }
      ],
      "stateMutability": "view",
      "type": "function"
    },
    {
      "inputs": [],
      "name": "s_tokenCounter",
      "outputs": [
        {
          "internalType": "uint256",
          "name": "",
          "type": "uint256"
        }
      ],
      "stateMutability": "view",
      "type": "function"
    },
    {
      "inputs": [
        {
          "internalType": "uint256",
          "name": "",
          "type": "uint256"
        }
      ],
      "name": "s_tokenIdToCreator",
      "outputs": [
        {
          "internalType": "address",
          "name": "",
          "type": "address"
        }
      ],
      "stateMutability": "view",
      "type": "function"
    },
    {
      "inputs": [
        {
          "internalType": "uint256",
          "name": "",
          "type": "uint256"
        }
      ],
      "name": "s_tokenIdToURI",
      "outputs": [
        {
          "internalType": "string",
          "name": "",
          "type": "string"
        }
      ],
      "stateMutability": "view",
      "type": "function"
    },
    {
      "inputs": [
        {
          "internalType": "address",
          "name": "from",
          "type": "address"
        },
        {
          "internalType": "address",
          "name": "to",
          "type": "address"
        },
        {
          "internalType": "uint256",
          "name": "tokenId",
          "type": "uint256"
        }
      ],
      "name": "safeTransferFrom",
      "outputs": [],
      "stateMutability": "nonpayable",
      "type": "function"
    },
    {
      "inputs": [
        {
          "internalType": "address",
          "name": "from",
          "type": "address"
        },
        {
          "internalType": "address",
          "name": "to",
          "type": "address"
        },
        {
          "internalType": "uint256",
          "name": "tokenId",
          "type": "uint256"
        },
        {
          "internalType": "bytes",
          "name": "data",
          "type": "bytes"
        }
      ],
      "name": "safeTransferFrom",
      "outputs": [],
      "stateMutability": "nonpayable",
      "type": "function"
    },
    {
      "inputs": [
        {
          "internalType": "address",
          "name": "operator",
          "type": "address"
        },
        {
          "internalType": "bool",
          "name": "approved",
          "type": "bool"
        }
      ],
      "name": "setApprovalForAll",
      "outputs": [],
      "stateMutability": "nonpayable",
      "type": "function"
    },
    {
      "inputs": [
        {
          "internalType": "string",
          "name": "seriesName",
          "type": "string"
        }
      ],
      "name": "setSeriesName",
      "outputs": [],
      "stateMutability": "nonpayable",
      "type": "function"
    },
    {
      "inputs": [
        {
          "internalType": "uint256",
          "name": "titleIndex",
          "type": "uint256"
        }
      ],
      "name": "setSeriesTitleIndex",
      "outputs": [],
      "stateMutability": "nonpayable",
      "type": "function"
    },
    {
      "inputs": [
        {
          "internalType": "bytes4",
          "name": "interfaceId",
          "type": "bytes4"
        }
      ],
      "name": "supportsInterface",
      "outputs": [
        {
          "internalType": "bool",
          "name": "",
          "type": "bool"
        }
      ],
      "stateMutability": "view",
      "type": "function"
    },
    {
      "inputs": [],
      "name": "symbol",
      "outputs": [
        {
          "internalType": "string",
          "name": "",
          "type": "string"
        }
      ],
      "stateMutability": "view",
      "type": "function"
    },
    {
      "inputs": [
        {
          "internalType": "uint256",
          "name": "tokenId",
          "type": "uint256"
        }
      ],
      "name": "tokenURI",
      "outputs": [
        {
          "internalType": "string",
          "name": "",
          "type": "string"
        }
      ],
      "stateMutability": "view",
      "type": "function"
    },
    {
      "inputs": [
        {
          "internalType": "address",
          "name": "from",
          "type": "address"
        },
        {
          "internalType": "address",
          "name": "to",
          "type": "address"
        },
        {
          "internalType": "uint256",
          "name": "tokenId",
          "type": "uint256"
        }
      ],
      "name": "transferFrom",
      "outputs": [],
      "stateMutability": "nonpayable",
      "type": "function"
    }
  ],
  "transactionHash": "0xe5f4df6c6e86dd47f2fa5bfd215de2106c05eaf1695d62050664cad50c058e07",
  "args": [
    "NFT Market",
    "ART"
  ],
  "numDeployments": 1,
  "solcInputHash": "86fc8383f5b55e0823dabbcea35bed83",
  "bytecode": "0x60a06040523480156200001157600080fd5b5060405162001e7038038062001e7083398101604081905262000034916200012c565b8181600062000044838262000225565b50600162000053828262000225565b5050336080525050600060065550620002f1565b634e487b7160e01b600052604160045260246000fd5b600082601f8301126200008f57600080fd5b81516001600160401b0380821115620000ac57620000ac62000067565b604051601f8301601f19908116603f01168101908282118183101715620000d757620000d762000067565b81604052838152602092508683858801011115620000f457600080fd5b600091505b83821015620001185785820183015181830184015290820190620000f9565b600093810190920192909252949350505050565b600080604083850312156200014057600080fd5b82516001600160401b03808211156200015857600080fd5b62000166868387016200007d565b935060208501519150808211156200017d57600080fd5b506200018c858286016200007d565b9150509250929050565b600181811c90821680620001ab57607f821691505b602082108103620001cc57634e487b7160e01b600052602260045260246000fd5b50919050565b601f8211156200022057600081815260208120601f850160051c81016020861015620001fb5750805b601f850160051c820191505b818110156200021c5782815560010162000207565b5050505b505050565b81516001600160401b0381111562000241576200024162000067565b620002598162000252845462000196565b84620001d2565b602080601f831160018114620002915760008415620002785750858301515b600019600386901b1c1916600185901b1785556200021c565b600085815260208120601f198616915b82811015620002c257888601518255948401946001909101908401620002a1565b5085821015620002e15787850151600019600388901b60f8161c191681555b5050505050600190811b01905550565b608051611b666200030a60003960005050611b666000f3fe608060405234801561001057600080fd5b50600436106101e55760003560e01c806375f91ec81161010f578063c41a360a116100a2578063d5ad19bc11610071578063d5ad19bc14610473578063df13455414610486578063e985e9c514610499578063fd5f32e6146104ac57600080fd5b8063c41a360a14610404578063c87b56dd14610417578063ca2a75a91461042a578063d48e638a1461044a57600080fd5b80639c5219c1116100de5780639c5219c1146103a2578063a22cb465146103b5578063b88d4fde146103c8578063c0263907146103db57600080fd5b806375f91ec814610356578063804bb0c61461035e57806395cb76081461037157806395d89b411461039a57600080fd5b806342842e0e1161018757806360d640681161015657806360d64068146102fd5780636352211e146103105780636f1e83311461032357806370a082311461034357600080fd5b806342842e0e146102a45780634e890106146102b757806351ef703c146102ca57806353f08e8b146102dd57600080fd5b8063095ea7b3116101c3578063095ea7b3146102525780630b21a83b1461026757806318d62d951461027e57806323b872dd1461029157600080fd5b806301ffc9a7146101ea57806306fdde0314610212578063081812fc14610227575b600080fd5b6101fd6101f8366004611513565b6104bf565b60405190151581526020015b60405180910390f35b61021a610511565b604051610209919061157d565b61023a610235366004611590565b6105a3565b6040516001600160a01b039091168152602001610209565b6102656102603660046115c5565b6105ca565b005b61027060065481565b604051908152602001610209565b61021a61028c366004611590565b6106e4565b61026561029f3660046115ef565b61077e565b6102656102b23660046115ef565b6107af565b6102706102c53660046116b7565b6107ca565b6102706102d83660046115c5565b6108bf565b6102706102eb366004611590565b60096020526000908152604090205481565b61027061030b3660046115c5565b6108f0565b61023a61031e366004611590565b61090c565b610270610331366004611700565b600d6020526000908152604090205481565b610270610351366004611700565b61096c565b600654610270565b61021a61036c366004611700565b6109f2565b61023a61037f366004611590565b6008602052600090815260409020546001600160a01b031681565b61021a610a9e565b61021a6103b0366004611700565b610aad565b6102656103c336600461171b565b610ac6565b6102656103d6366004611757565b610ad5565b6102706103e9366004611700565b6001600160a01b03166000908152600d602052604090205490565b61023a610412366004611590565b610b0d565b61021a610425366004611590565b610b2a565b61043d610438366004611700565b610b47565b60405161020991906117d3565b61023a610458366004611590565b6000908152600860205260409020546001600160a01b031690565b61043d610481366004611700565b610bb2565b610265610494366004611590565b610c1c565b6101fd6104a7366004611817565b610cd4565b6102656104ba3660046116b7565b610d02565b60006001600160e01b031982166380ac58cd60e01b14806104f057506001600160e01b03198216635b5e139f60e01b145b8061050b57506301ffc9a760e01b6001600160e01b03198316145b92915050565b6060600080546105209061184a565b80601f016020809104026020016040519081016040528092919081815260200182805461054c9061184a565b80156105995780601f1061056e57610100808354040283529160200191610599565b820191906000526020600020905b81548152906001019060200180831161057c57829003601f168201915b5050505050905090565b60006105ae82610d1b565b506000908152600460205260409020546001600160a01b031690565b60006105d58261090c565b9050806001600160a01b0316836001600160a01b0316036106475760405162461bcd60e51b815260206004820152602160248201527f4552433732313a20617070726f76616c20746f2063757272656e74206f776e656044820152603960f91b60648201526084015b60405180910390fd5b336001600160a01b038216148061066357506106638133610cd4565b6106d55760405162461bcd60e51b815260206004820152603d60248201527f4552433732313a20617070726f76652063616c6c6572206973206e6f7420746f60448201527f6b656e206f776e6572206f7220617070726f76656420666f7220616c6c000000606482015260840161063e565b6106df8383610d7d565b505050565b600760205260009081526040902080546106fd9061184a565b80601f01602080910402602001604051908101604052809291908181526020018280546107299061184a565b80156107765780601f1061074b57610100808354040283529160200191610776565b820191906000526020600020905b81548152906001019060200180831161075957829003601f168201915b505050505081565b6107883382610deb565b6107a45760405162461bcd60e51b815260040161063e90611884565b6106df838383610e4a565b6106df83838360405180602001604052806000815250610ad5565b6006546000906107da3382610fb6565b60008181526007602052604090206107f28482611917565b50600081815260086020908152604080832080546001600160a01b03191633908117909155808452600a8352908320805460018181018355828652938520018590559252905461084291906119ed565b600082815260096020908152604080832093909355338252600b81529181208054600181810183559183529290912090910182905560065461088391611a00565b600655336000818152600a60205260405183917f5ff4663d5496965b8dd6f9073898984de68e01ea2508cf1f66ef86c755feeb8391a392915050565b600a60205281600052604060002081815481106108db57600080fd5b90600052602060002001600091509150505481565b600b60205281600052604060002081815481106108db57600080fd5b6000818152600260205260408120546001600160a01b03168061050b5760405162461bcd60e51b8152602060048201526018602482015277115490cdcc8c4e881a5b9d985b1a59081d1bdad95b88125160421b604482015260640161063e565b60006001600160a01b0382166109d65760405162461bcd60e51b815260206004820152602960248201527f4552433732313a2061646472657373207a65726f206973206e6f7420612076616044820152683634b21037bbb732b960b91b606482015260840161063e565b506001600160a01b031660009081526003602052604090205490565b6001600160a01b0381166000908152600c60205260409020805460609190610a199061184a565b80601f0160208091040260200160405190810160405280929190818152602001828054610a459061184a565b8015610a925780601f10610a6757610100808354040283529160200191610a92565b820191906000526020600020905b815481529060010190602001808311610a7557829003601f168201915b50505050509050919050565b6060600180546105209061184a565b600c60205260009081526040902080546106fd9061184a565b610ad1338383610fd0565b5050565b610adf3383610deb565b610afb5760405162461bcd60e51b815260040161063e90611884565b610b078484848461109e565b50505050565b6000818152600260205260408120546001600160a01b031661050b565b6000818152600760205260409020805460609190610a199061184a565b6001600160a01b0381166000908152600b6020908152604091829020805483518184028101840190945280845260609392830182828015610a9257602002820191906000526020600020905b815481526020019060010190808311610b935750505050509050919050565b6001600160a01b0381166000908152600a6020908152604091829020805483518184028101840190945280845260609392830182828015610a925760200282019190600052602060002090815481526020019060010190808311610b935750505050509050919050565b336000908152600b60205260409020548110610c6f5760405162461bcd60e51b8152602060048201526012602482015271496e646578206f7574206f662072616e676560701b604482015260640161063e565b336000908152600d60205260409020548103610cc25760405162461bcd60e51b8152602060048201526012602482015271125b99195e081a5cc81a59195b9d1a58d85b60721b604482015260640161063e565b336000908152600d6020526040902055565b6001600160a01b03918216600090815260056020908152604080832093909416825291909152205460ff1690565b336000908152600c60205260409020610ad18282611917565b6000818152600260205260409020546001600160a01b0316610d7a5760405162461bcd60e51b8152602060048201526018602482015277115490cdcc8c4e881a5b9d985b1a59081d1bdad95b88125160421b604482015260640161063e565b50565b600081815260046020526040902080546001600160a01b0319166001600160a01b0384169081179091558190610db28261090c565b6001600160a01b03167f8c5be1e5ebec7d5bd14f71427d1e84f3dd0314c0f7b2291e5b200ac8c7c3b92560405160405180910390a45050565b600080610df78361090c565b9050806001600160a01b0316846001600160a01b03161480610e1e5750610e1e8185610cd4565b80610e425750836001600160a01b0316610e37846105a3565b6001600160a01b0316145b949350505050565b826001600160a01b0316610e5d8261090c565b6001600160a01b031614610e835760405162461bcd60e51b815260040161063e90611a13565b6001600160a01b038216610ee55760405162461bcd60e51b8152602060048201526024808201527f4552433732313a207472616e7366657220746f20746865207a65726f206164646044820152637265737360e01b606482015260840161063e565b826001600160a01b0316610ef88261090c565b6001600160a01b031614610f1e5760405162461bcd60e51b815260040161063e90611a13565b600081815260046020908152604080832080546001600160a01b03199081169091556001600160a01b0387811680865260038552838620805460001901905590871680865283862080546001019055868652600290945282852080549092168417909155905184937fddf252ad1be2c89b69c2b068fc378daa952ba7f163c4a11628f55a4df523b3ef91a46106df83838360016110d1565b610ad1828260405180602001604052806000815250611234565b816001600160a01b0316836001600160a01b0316036110315760405162461bcd60e51b815260206004820152601960248201527f4552433732313a20617070726f766520746f2063616c6c657200000000000000604482015260640161063e565b6001600160a01b03838116600081815260056020908152604080832094871680845294825291829020805460ff191686151590811790915591519182527f17307eab39ab6107e8899845ad3d59bd9653f200f220920489ca2b5937696c31910160405180910390a3505050565b6110a9848484610e4a565b6110b584848484611267565b610b075760405162461bcd60e51b815260040161063e90611a58565b6001600160a01b038481161590841615816111ce576000848152600960209081526040808320546001600160a01b038a168452600a9092528220805491929161111c906001906119ed565b8154811061112c5761112c611aaa565b9060005260206000200154905080600a60008a6001600160a01b03166001600160a01b03168152602001908152602001600020838154811061117057611170611aaa565b60009182526020808320909101929092556001600160a01b038a168152600a909152604090208054806111a5576111a5611ac0565b600082815260208082208301600019908101839055909201909255918152600990915260409020555b801580156111da575081155b1561122c576001600160a01b0385166000818152600a6020908152604082208054600181810183558285529284200188905592909152905461121c91906119ed565b6000858152600960205260409020555b505050505050565b61123e8383611368565b61124b6000848484611267565b6106df5760405162461bcd60e51b815260040161063e90611a58565b60006001600160a01b0384163b1561135d57604051630a85bd0160e11b81526001600160a01b0385169063150b7a02906112ab903390899088908890600401611ad6565b6020604051808303816000875af19250505080156112e6575060408051601f3d908101601f191682019092526112e391810190611b13565b60015b611343573d808015611314576040519150601f19603f3d011682016040523d82523d6000602084013e611319565b606091505b50805160000361133b5760405162461bcd60e51b815260040161063e90611a58565b805181602001fd5b6001600160e01b031916630a85bd0160e11b149050610e42565b506001949350505050565b6001600160a01b0382166113be5760405162461bcd60e51b815260206004820181905260248201527f4552433732313a206d696e7420746f20746865207a65726f2061646472657373604482015260640161063e565b6000818152600260205260409020546001600160a01b0316156114235760405162461bcd60e51b815260206004820152601c60248201527f4552433732313a20746f6b656e20616c7265616479206d696e74656400000000604482015260640161063e565b6000818152600260205260409020546001600160a01b0316156114885760405162461bcd60e51b815260206004820152601c60248201527f4552433732313a20746f6b656e20616c7265616479206d696e74656400000000604482015260640161063e565b6001600160a01b038216600081815260036020908152604080832080546001019055848352600290915280822080546001600160a01b0319168417905551839291907fddf252ad1be2c89b69c2b068fc378daa952ba7f163c4a11628f55a4df523b3ef908290a4610ad16000838360016110d1565b6001600160e01b031981168114610d7a57600080fd5b60006020828403121561152557600080fd5b8135611530816114fd565b9392505050565b6000815180845260005b8181101561155d57602081850181015186830182015201611541565b506000602082860101526020601f19601f83011685010191505092915050565b6020815260006115306020830184611537565b6000602082840312156115a257600080fd5b5035919050565b80356001600160a01b03811681146115c057600080fd5b919050565b600080604083850312156115d857600080fd5b6115e1836115a9565b946020939093013593505050565b60008060006060848603121561160457600080fd5b61160d846115a9565b925061161b602085016115a9565b9150604084013590509250925092565b634e487b7160e01b600052604160045260246000fd5b600067ffffffffffffffff8084111561165c5761165c61162b565b604051601f8501601f19908116603f011681019082821181831017156116845761168461162b565b8160405280935085815286868601111561169d57600080fd5b858560208301376000602087830101525050509392505050565b6000602082840312156116c957600080fd5b813567ffffffffffffffff8111156116e057600080fd5b8201601f810184136116f157600080fd5b610e4284823560208401611641565b60006020828403121561171257600080fd5b611530826115a9565b6000806040838503121561172e57600080fd5b611737836115a9565b91506020830135801515811461174c57600080fd5b809150509250929050565b6000806000806080858703121561176d57600080fd5b611776856115a9565b9350611784602086016115a9565b925060408501359150606085013567ffffffffffffffff8111156117a757600080fd5b8501601f810187136117b857600080fd5b6117c787823560208401611641565b91505092959194509250565b6020808252825182820181905260009190848201906040850190845b8181101561180b578351835292840192918401916001016117ef565b50909695505050505050565b6000806040838503121561182a57600080fd5b611833836115a9565b9150611841602084016115a9565b90509250929050565b600181811c9082168061185e57607f821691505b60208210810361187e57634e487b7160e01b600052602260045260246000fd5b50919050565b6020808252602d908201527f4552433732313a2063616c6c6572206973206e6f7420746f6b656e206f776e6560408201526c1c881bdc88185c1c1c9bdd9959609a1b606082015260800190565b601f8211156106df57600081815260208120601f850160051c810160208610156118f85750805b601f850160051c820191505b8181101561122c57828155600101611904565b815167ffffffffffffffff8111156119315761193161162b565b6119458161193f845461184a565b846118d1565b602080601f83116001811461197a57600084156119625750858301515b600019600386901b1c1916600185901b17855561122c565b600085815260208120601f198616915b828110156119a95788860151825594840194600190910190840161198a565b50858210156119c75787850151600019600388901b60f8161c191681555b5050505050600190811b01905550565b634e487b7160e01b600052601160045260246000fd5b8181038181111561050b5761050b6119d7565b8082018082111561050b5761050b6119d7565b60208082526025908201527f4552433732313a207472616e736665722066726f6d20696e636f72726563742060408201526437bbb732b960d91b606082015260800190565b60208082526032908201527f4552433732313a207472616e7366657220746f206e6f6e20455243373231526560408201527131b2b4bb32b91034b6b83632b6b2b73a32b960711b606082015260800190565b634e487b7160e01b600052603260045260246000fd5b634e487b7160e01b600052603160045260246000fd5b6001600160a01b0385811682528416602082015260408101839052608060608201819052600090611b0990830184611537565b9695505050505050565b600060208284031215611b2557600080fd5b8151611530816114fd56fea264697066735822122055ed663758833edaef4add3d05df4bf07d75b721a5808daff52bd8f7b089b1c364736f6c63430008130033",
  "devdoc": {
    "events": {
      "Approval(address,address,uint256)": {
        "details": "Emitted when `owner` enables `approved` to manage the `tokenId` token."
      },
      "ApprovalForAll(address,address,bool)": {
        "details": "Emitted when `owner` enables or disables (`approved`) `operator` to manage all of its assets."
      },
      "Transfer(address,address,uint256)": {
        "details": "Emitted when `tokenId` token is transferred from `from` to `to`."
      }
    },
    "kind": "dev",
    "methods": {
      "approve(address,uint256)": {
        "details": "See {IERC721-approve}."
      },
      "balanceOf(address)": {
        "details": "See {IERC721-balanceOf}."
      },
      "getApproved(uint256)": {
        "details": "See {IERC721-getApproved}."
      },
      "isApprovedForAll(address,address)": {
        "details": "See {IERC721-isApprovedForAll}."
      },
      "name()": {
        "details": "See {IERC721Metadata-name}."
      },
      "ownerOf(uint256)": {
        "details": "See {IERC721-ownerOf}."
      },
      "safeTransferFrom(address,address,uint256)": {
        "details": "See {IERC721-safeTransferFrom}."
      },
      "safeTransferFrom(address,address,uint256,bytes)": {
        "details": "See {IERC721-safeTransferFrom}."
      },
      "setApprovalForAll(address,bool)": {
        "details": "See {IERC721-setApprovalForAll}."
      },
      "supportsInterface(bytes4)": {
        "details": "See {IERC165-supportsInterface}."
      },
      "symbol()": {
        "details": "See {IERC721Metadata-symbol}."
      },
      "tokenURI(uint256)": {
        "details": "See {IERC721Metadata-tokenURI}."
      },
      "transferFrom(address,address,uint256)": {
        "details": "See {IERC721-transferFrom}."
      }
    },
    "version": 1
  },
  "userdoc": {
    "kind": "user",
    "methods": {},
    "version": 1
  },
  "storageLayout": {
    "storage": [
      {
        "astId": 25,
        "contract": "contracts/NFTtoken.sol:NFTtoken",
        "label": "_name",
        "offset": 0,
        "slot": "0",
        "type": "t_string_storage"
      },
      {
        "astId": 27,
        "contract": "contracts/NFTtoken.sol:NFTtoken",
        "label": "_symbol",
        "offset": 0,
        "slot": "1",
        "type": "t_string_storage"
      },
      {
        "astId": 31,
        "contract": "contracts/NFTtoken.sol:NFTtoken",
        "label": "_owners",
        "offset": 0,
        "slot": "2",
        "type": "t_mapping(t_uint256,t_address)"
      },
      {
        "astId": 35,
        "contract": "contracts/NFTtoken.sol:NFTtoken",
        "label": "_balances",
        "offset": 0,
        "slot": "3",
        "type": "t_mapping(t_address,t_uint256)"
      },
      {
        "astId": 39,
        "contract": "contracts/NFTtoken.sol:NFTtoken",
        "label": "_tokenApprovals",
        "offset": 0,
        "slot": "4",
        "type": "t_mapping(t_uint256,t_address)"
      },
      {
        "astId": 45,
        "contract": "contracts/NFTtoken.sol:NFTtoken",
        "label": "_operatorApprovals",
        "offset": 0,
        "slot": "5",
        "type": "t_mapping(t_address,t_mapping(t_address,t_bool))"
      },
      {
        "astId": 2684,
        "contract": "contracts/NFTtoken.sol:NFTtoken",
        "label": "s_tokenCounter",
        "offset": 0,
        "slot": "6",
        "type": "t_uint256"
      },
      {
        "astId": 2688,
        "contract": "contracts/NFTtoken.sol:NFTtoken",
        "label": "s_tokenIdToURI",
        "offset": 0,
        "slot": "7",
        "type": "t_mapping(t_uint256,t_string_storage)"
      },
      {
        "astId": 2692,
        "contract": "contracts/NFTtoken.sol:NFTtoken",
        "label": "s_tokenIdToCreator",
        "offset": 0,
        "slot": "8",
        "type": "t_mapping(t_uint256,t_address)"
      },
      {
        "astId": 2696,
        "contract": "contracts/NFTtoken.sol:NFTtoken",
        "label": "s_currentTokenIndex",
        "offset": 0,
        "slot": "9",
        "type": "t_mapping(t_uint256,t_uint256)"
      },
      {
        "astId": 2701,
        "contract": "contracts/NFTtoken.sol:NFTtoken",
        "label": "s_ownerToTokenIds",
        "offset": 0,
        "slot": "10",
        "type": "t_mapping(t_address,t_array(t_uint256)dyn_storage)"
      },
      {
        "astId": 2706,
        "contract": "contracts/NFTtoken.sol:NFTtoken",
        "label": "s_creatorToTokenIds",
        "offset": 0,
        "slot": "11",
        "type": "t_mapping(t_address,t_array(t_uint256)dyn_storage)"
      },
      {
        "astId": 2710,
        "contract": "contracts/NFTtoken.sol:NFTtoken",
        "label": "s_addressToSeries",
        "offset": 0,
        "slot": "12",
        "type": "t_mapping(t_address,t_string_storage)"
      },
      {
        "astId": 2714,
        "contract": "contracts/NFTtoken.sol:NFTtoken",
        "label": "s_addressToTitleIndex",
        "offset": 0,
        "slot": "13",
        "type": "t_mapping(t_address,t_uint256)"
      }
    ],
    "types": {
      "t_address": {
        "encoding": "inplace",
        "label": "address",
        "numberOfBytes": "20"
      },
      "t_array(t_uint256)dyn_storage": {
        "base": "t_uint256",
        "encoding": "dynamic_array",
        "label": "uint256[]",
        "numberOfBytes": "32"
      },
      "t_bool": {
        "encoding": "inplace",
        "label": "bool",
        "numberOfBytes": "1"
      },
      "t_mapping(t_address,t_array(t_uint256)dyn_storage)": {
        "encoding": "mapping",
        "key": "t_address",
        "label": "mapping(address => uint256[])",
        "numberOfBytes": "32",
        "value": "t_array(t_uint256)dyn_storage"
      },
      "t_mapping(t_address,t_bool)": {
        "encoding": "mapping",
        "key": "t_address",
        "label": "mapping(address => bool)",
        "numberOfBytes": "32",
        "value": "t_bool"
      },
      "t_mapping(t_address,t_mapping(t_address,t_bool))": {
        "encoding": "mapping",
        "key": "t_address",
        "label": "mapping(address => mapping(address => bool))",
        "numberOfBytes": "32",
        "value": "t_mapping(t_address,t_bool)"
      },
      "t_mapping(t_address,t_string_storage)": {
        "encoding": "mapping",
        "key": "t_address",
        "label": "mapping(address => string)",
        "numberOfBytes": "32",
        "value": "t_string_storage"
      },
      "t_mapping(t_address,t_uint256)": {
        "encoding": "mapping",
        "key": "t_address",
        "label": "mapping(address => uint256)",
        "numberOfBytes": "32",
        "value": "t_uint256"
      },
      "t_mapping(t_uint256,t_address)": {
        "encoding": "mapping",
        "key": "t_uint256",
        "label": "mapping(uint256 => address)",
        "numberOfBytes": "32",
        "value": "t_address"
      },
      "t_mapping(t_uint256,t_string_storage)": {
        "encoding": "mapping",
        "key": "t_uint256",
        "label": "mapping(uint256 => string)",
        "numberOfBytes": "32",
        "value": "t_string_storage"
      },
      "t_mapping(t_uint256,t_uint256)": {
        "encoding": "mapping",
        "key": "t_uint256",
        "label": "mapping(uint256 => uint256)",
        "numberOfBytes": "32",
        "value": "t_uint256"
      },
      "t_string_storage": {
        "encoding": "bytes",
        "label": "string",
        "numberOfBytes": "32"
      },
      "t_uint256": {
        "encoding": "inplace",
        "label": "uint256",
        "numberOfBytes": "32"
      }
    }
  }
}